{
  "contractName": "PasswordManager",
  "abi": [
    {
      "anonymous": false,
      "inputs": [
        {
          "indexed": true,
          "internalType": "address",
          "name": "previousOwner",
          "type": "address"
        },
        {
          "indexed": true,
          "internalType": "address",
          "name": "newOwner",
          "type": "address"
        }
      ],
      "name": "OwnershipTransferred",
      "type": "event"
    },
    {
      "anonymous": false,
      "inputs": [
        {
          "indexed": true,
          "internalType": "address",
          "name": "sender",
          "type": "address"
        }
      ],
      "name": "PasswordDeleted",
      "type": "event"
    },
    {
      "anonymous": false,
      "inputs": [
        {
          "indexed": true,
          "internalType": "address",
          "name": "sender",
          "type": "address"
        },
        {
          "components": [
            {
              "internalType": "string",
              "name": "domain",
              "type": "string"
            },
            {
              "internalType": "string",
              "name": "username",
              "type": "string"
            },
            {
              "internalType": "string",
              "name": "password",
              "type": "string"
            }
          ],
          "indexed": false,
          "internalType": "struct PasswordManager.Password",
          "name": "pw",
          "type": "tuple"
        }
      ],
      "name": "PasswordSaved",
      "type": "event"
    },
    {
      "anonymous": false,
      "inputs": [
        {
          "indexed": true,
          "internalType": "address",
          "name": "sender",
          "type": "address"
        }
      ],
      "name": "PasswordUpdated",
      "type": "event"
    },
    {
      "stateMutability": "payable",
      "type": "fallback",
      "payable": true
    },
    {
      "inputs": [],
      "name": "balance",
      "outputs": [
        {
          "internalType": "uint256",
          "name": "",
          "type": "uint256"
        }
      ],
      "stateMutability": "view",
      "type": "function",
      "constant": true
    },
    {
      "inputs": [],
      "name": "owner",
      "outputs": [
        {
          "internalType": "address",
          "name": "",
          "type": "address"
        }
      ],
      "stateMutability": "view",
      "type": "function",
      "constant": true
    },
    {
      "inputs": [],
      "name": "renounceOwnership",
      "outputs": [],
      "stateMutability": "nonpayable",
      "type": "function"
    },
    {
      "inputs": [
        {
          "internalType": "address",
          "name": "newOwner",
          "type": "address"
        }
      ],
      "name": "transferOwnership",
      "outputs": [],
      "stateMutability": "nonpayable",
      "type": "function"
    },
    {
      "stateMutability": "payable",
      "type": "receive",
      "payable": true
    },
    {
      "inputs": [],
      "name": "getPasswordList",
      "outputs": [
        {
          "components": [
            {
              "internalType": "string",
              "name": "domain",
              "type": "string"
            },
            {
              "internalType": "string",
              "name": "username",
              "type": "string"
            },
            {
              "internalType": "string",
              "name": "password",
              "type": "string"
            }
          ],
          "internalType": "struct PasswordManager.Password[]",
          "name": "",
          "type": "tuple[]"
        }
      ],
      "stateMutability": "view",
      "type": "function",
      "constant": true
    },
    {
      "inputs": [
        {
          "internalType": "string",
          "name": "_domain",
          "type": "string"
        },
        {
          "internalType": "string",
          "name": "_username",
          "type": "string"
        },
        {
          "internalType": "string",
          "name": "_password",
          "type": "string"
        }
      ],
      "name": "saveNewPassword",
      "outputs": [
        {
          "internalType": "bool",
          "name": "",
          "type": "bool"
        }
      ],
      "stateMutability": "payable",
      "type": "function",
      "payable": true
    },
    {
      "inputs": [
        {
          "internalType": "uint256",
          "name": "_index",
          "type": "uint256"
        },
        {
          "internalType": "string",
          "name": "_updatedDomain",
          "type": "string"
        },
        {
          "internalType": "string",
          "name": "_updatedUsername",
          "type": "string"
        },
        {
          "internalType": "string",
          "name": "_updatedPassword",
          "type": "string"
        }
      ],
      "name": "updatePassword",
      "outputs": [
        {
          "internalType": "bool",
          "name": "",
          "type": "bool"
        }
      ],
      "stateMutability": "nonpayable",
      "type": "function"
    },
    {
      "inputs": [
        {
          "internalType": "uint256",
          "name": "_index",
          "type": "uint256"
        }
      ],
      "name": "deletePassword",
      "outputs": [
        {
          "internalType": "bool",
          "name": "",
          "type": "bool"
        }
      ],
      "stateMutability": "nonpayable",
      "type": "function"
    },
    {
      "inputs": [
        {
          "internalType": "uint256",
          "name": "_amountToWithdraw",
          "type": "uint256"
        }
      ],
      "name": "withdraw",
      "outputs": [
        {
          "internalType": "bool",
          "name": "",
          "type": "bool"
        }
      ],
      "stateMutability": "payable",
      "type": "function",
      "payable": true
    }
  ],
  "bytecode": "0x608060405234801561001057600080fd5b5061002d61002261003260201b60201c565b61003a60201b60201c565b6100fe565b600033905090565b60008060009054906101000a900473ffffffffffffffffffffffffffffffffffffffff169050816000806101000a81548173ffffffffffffffffffffffffffffffffffffffff021916908373ffffffffffffffffffffffffffffffffffffffff1602179055508173ffffffffffffffffffffffffffffffffffffffff168173ffffffffffffffffffffffffffffffffffffffff167f8be0079c531659141344cd1fd0a4f28419497f9722a3daafe3b4186f6b6457e060405160405180910390a35050565b611af18061010d6000396000f3fe60806040526004361061008a5760003560e01c8063a04b6fe111610059578063a04b6fe114610162578063b69ef8a814610192578063c3b3863c146101bd578063d2051f8e146101fa578063f2fde38b14610237576100aa565b80632e1a7d4d146100c557806361c68110146100f5578063715018a6146101205780638da5cb5b14610137576100aa565b366100aa5734600160008282546100a19190611085565b92505081905550005b34600160008282546100bc9190611085565b92505081905550005b6100df60048036038101906100da919061111b565b610260565b6040516100ec9190611163565b60405180910390f35b34801561010157600080fd5b5061010a6103bc565b6040516101179190611337565b60405180910390f35b34801561012c57600080fd5b50610135610693565b005b34801561014357600080fd5b5061014c61071b565b604051610159919061139a565b60405180910390f35b61017c600480360381019061017791906114ea565b610744565b6040516101899190611163565b60405180910390f35b34801561019e57600080fd5b506101a7610880565b6040516101b491906115a0565b60405180910390f35b3480156101c957600080fd5b506101e460048036038101906101df919061111b565b610886565b6040516101f19190611163565b60405180910390f35b34801561020657600080fd5b50610221600480360381019061021c91906115bb565b610b6f565b60405161022e9190611163565b60405180910390f35b34801561024357600080fd5b5061025e600480360381019061025991906116a2565b610d18565b005b600061026a610e10565b73ffffffffffffffffffffffffffffffffffffffff1661028861071b565b73ffffffffffffffffffffffffffffffffffffffff16146102de576040517f08c379a00000000000000000000000000000000000000000000000000000000081526004016102d59061172c565b60405180910390fd5b600154821115610323576040517f08c379a000000000000000000000000000000000000000000000000000000000815260040161031a90611798565b60405180910390fd5b816001600082825461033591906117b8565b9250508190555060003373ffffffffffffffffffffffffffffffffffffffff168360405161036290611843565b60006040518083038185875af1925050503d806000811461039f576040519150601f19603f3d011682016040523d82523d6000602084013e6103a4565b606091505b50509050806103b257600080fd5b6001915050919050565b60606000600260003373ffffffffffffffffffffffffffffffffffffffff1673ffffffffffffffffffffffffffffffffffffffff1681526020019081526020016000208054905011610443576040517f08c379a000000000000000000000000000000000000000000000000000000000815260040161043a906118ca565b60405180910390fd5b600260003373ffffffffffffffffffffffffffffffffffffffff1673ffffffffffffffffffffffffffffffffffffffff168152602001908152602001600020805480602002602001604051908101604052809291908181526020016000905b8282101561068a57838290600052602060002090600302016040518060600160405290816000820180546104d590611919565b80601f016020809104026020016040519081016040528092919081815260200182805461050190611919565b801561054e5780601f106105235761010080835404028352916020019161054e565b820191906000526020600020905b81548152906001019060200180831161053157829003601f168201915b5050505050815260200160018201805461056790611919565b80601f016020809104026020016040519081016040528092919081815260200182805461059390611919565b80156105e05780601f106105b5576101008083540402835291602001916105e0565b820191906000526020600020905b8154815290600101906020018083116105c357829003601f168201915b505050505081526020016002820180546105f990611919565b80601f016020809104026020016040519081016040528092919081815260200182805461062590611919565b80156106725780601f1061064757610100808354040283529160200191610672565b820191906000526020600020905b81548152906001019060200180831161065557829003601f168201915b505050505081525050815260200190600101906104a2565b50505050905090565b61069b610e10565b73ffffffffffffffffffffffffffffffffffffffff166106b961071b565b73ffffffffffffffffffffffffffffffffffffffff161461070f576040517f08c379a00000000000000000000000000000000000000000000000000000000081526004016107069061172c565b60405180910390fd5b6107196000610e18565b565b60008060009054906101000a900473ffffffffffffffffffffffffffffffffffffffff16905090565b6000806040518060600160405280868152602001858152602001848152509050600260003373ffffffffffffffffffffffffffffffffffffffff1673ffffffffffffffffffffffffffffffffffffffff16815260200190815260200160002081908060018154018082558091505060019003906000526020600020906003020160009091909190915060008201518160000190805190602001906107e9929190610edc565b506020820151816001019080519060200190610806929190610edc565b506040820151816002019080519060200190610823929190610edc565b5050503373ffffffffffffffffffffffffffffffffffffffff167f6ce0ac746c3dae0d04731da4df48f4ab4c9158c9130dabb57b57ed34506196128260405161086c91906119a9565b60405180910390a260019150509392505050565b60015481565b600080600260003373ffffffffffffffffffffffffffffffffffffffff1673ffffffffffffffffffffffffffffffffffffffff168152602001908152602001600020805490501161090c576040517f08c379a0000000000000000000000000000000000000000000000000000000008152600401610903906118ca565b60405180910390fd5b6000600260003373ffffffffffffffffffffffffffffffffffffffff1673ffffffffffffffffffffffffffffffffffffffff1681526020019081526020016000208054905090506001811115610a8a57600260003373ffffffffffffffffffffffffffffffffffffffff1673ffffffffffffffffffffffffffffffffffffffff1681526020019081526020016000206001826109a891906117b8565b815481106109b9576109b86119cb565b5b9060005260206000209060030201600260003373ffffffffffffffffffffffffffffffffffffffff1673ffffffffffffffffffffffffffffffffffffffff1681526020019081526020016000208481548110610a1857610a176119cb565b5b90600052602060002090600302016000820181600001908054610a3a90611919565b610a45929190610f62565b506001820181600101908054610a5a90611919565b610a65929190610f62565b506002820181600201908054610a7a90611919565b610a85929190610f62565b509050505b600260003373ffffffffffffffffffffffffffffffffffffffff1673ffffffffffffffffffffffffffffffffffffffff168152602001908152602001600020805480610ad957610ad86119fa565b5b600190038181906000526020600020906003020160008082016000610afe9190610fef565b600182016000610b0e9190610fef565b600282016000610b1e9190610fef565b505090553373ffffffffffffffffffffffffffffffffffffffff167fc9136657b3a49b964bfc5c2a296352dadb93eb43d997f910bfeda105bd5a640560405160405180910390a26001915050919050565b600080600260003373ffffffffffffffffffffffffffffffffffffffff1673ffffffffffffffffffffffffffffffffffffffff1681526020019081526020016000208054905011610bf5576040517f08c379a0000000000000000000000000000000000000000000000000000000008152600401610bec906118ca565b60405180910390fd5b604051806060016040528085815260200184815260200183815250600260003373ffffffffffffffffffffffffffffffffffffffff1673ffffffffffffffffffffffffffffffffffffffff1681526020019081526020016000208681548110610c6157610c606119cb565b5b90600052602060002090600302016000820151816000019080519060200190610c8b929190610edc565b506020820151816001019080519060200190610ca8929190610edc565b506040820151816002019080519060200190610cc5929190610edc565b509050503373ffffffffffffffffffffffffffffffffffffffff167f59d5e5502067ddbcd17d342059dce1fd469d88df519507513e7b392a068a936160405160405180910390a260019050949350505050565b610d20610e10565b73ffffffffffffffffffffffffffffffffffffffff16610d3e61071b565b73ffffffffffffffffffffffffffffffffffffffff1614610d94576040517f08c379a0000000000000000000000000000000000000000000000000000000008152600401610d8b9061172c565b60405180910390fd5b600073ffffffffffffffffffffffffffffffffffffffff168173ffffffffffffffffffffffffffffffffffffffff161415610e04576040517f08c379a0000000000000000000000000000000000000000000000000000000008152600401610dfb90611a9b565b60405180910390fd5b610e0d81610e18565b50565b600033905090565b60008060009054906101000a900473ffffffffffffffffffffffffffffffffffffffff169050816000806101000a81548173ffffffffffffffffffffffffffffffffffffffff021916908373ffffffffffffffffffffffffffffffffffffffff1602179055508173ffffffffffffffffffffffffffffffffffffffff168173ffffffffffffffffffffffffffffffffffffffff167f8be0079c531659141344cd1fd0a4f28419497f9722a3daafe3b4186f6b6457e060405160405180910390a35050565b828054610ee890611919565b90600052602060002090601f016020900481019282610f0a5760008555610f51565b82601f10610f2357805160ff1916838001178555610f51565b82800160010185558215610f51579182015b82811115610f50578251825591602001919060010190610f35565b5b509050610f5e919061102f565b5090565b828054610f6e90611919565b90600052602060002090601f016020900481019282610f905760008555610fde565b82601f10610fa15780548555610fde565b82800160010185558215610fde57600052602060002091601f016020900482015b82811115610fdd578254825591600101919060010190610fc2565b5b509050610feb919061102f565b5090565b508054610ffb90611919565b6000825580601f1061100d575061102c565b601f01602090049060005260206000209081019061102b919061102f565b5b50565b5b80821115611048576000816000905550600101611030565b5090565b6000819050919050565b7f4e487b7100000000000000000000000000000000000000000000000000000000600052601160045260246000fd5b60006110908261104c565b915061109b8361104c565b9250827fffffffffffffffffffffffffffffffffffffffffffffffffffffffffffffffff038211156110d0576110cf611056565b5b828201905092915050565b6000604051905090565b600080fd5b600080fd5b6110f88161104c565b811461110357600080fd5b50565b600081359050611115816110ef565b92915050565b600060208284031215611131576111306110e5565b5b600061113f84828501611106565b91505092915050565b60008115159050919050565b61115d81611148565b82525050565b60006020820190506111786000830184611154565b92915050565b600081519050919050565b600082825260208201905092915050565b6000819050602082019050919050565b600081519050919050565b600082825260208201905092915050565b60005b838110156111e45780820151818401526020810190506111c9565b838111156111f3576000848401525b50505050565b6000601f19601f8301169050919050565b6000611215826111aa565b61121f81856111b5565b935061122f8185602086016111c6565b611238816111f9565b840191505092915050565b60006060830160008301518482036000860152611260828261120a565b9150506020830151848203602086015261127a828261120a565b91505060408301518482036040860152611294828261120a565b9150508091505092915050565b60006112ad8383611243565b905092915050565b6000602082019050919050565b60006112cd8261117e565b6112d78185611189565b9350836020820285016112e98561119a565b8060005b85811015611325578484038952815161130685826112a1565b9450611311836112b5565b925060208a019950506001810190506112ed565b50829750879550505050505092915050565b6000602082019050818103600083015261135181846112c2565b905092915050565b600073ffffffffffffffffffffffffffffffffffffffff82169050919050565b600061138482611359565b9050919050565b61139481611379565b82525050565b60006020820190506113af600083018461138b565b92915050565b600080fd5b600080fd5b7f4e487b7100000000000000000000000000000000000000000000000000000000600052604160045260246000fd5b6113f7826111f9565b810181811067ffffffffffffffff82111715611416576114156113bf565b5b80604052505050565b60006114296110db565b905061143582826113ee565b919050565b600067ffffffffffffffff821115611455576114546113bf565b5b61145e826111f9565b9050602081019050919050565b82818337600083830152505050565b600061148d6114888461143a565b61141f565b9050828152602081018484840111156114a9576114a86113ba565b5b6114b484828561146b565b509392505050565b600082601f8301126114d1576114d06113b5565b5b81356114e184826020860161147a565b91505092915050565b600080600060608486031215611503576115026110e5565b5b600084013567ffffffffffffffff811115611521576115206110ea565b5b61152d868287016114bc565b935050602084013567ffffffffffffffff81111561154e5761154d6110ea565b5b61155a868287016114bc565b925050604084013567ffffffffffffffff81111561157b5761157a6110ea565b5b611587868287016114bc565b9150509250925092565b61159a8161104c565b82525050565b60006020820190506115b56000830184611591565b92915050565b600080600080608085870312156115d5576115d46110e5565b5b60006115e387828801611106565b945050602085013567ffffffffffffffff811115611604576116036110ea565b5b611610878288016114bc565b935050604085013567ffffffffffffffff811115611631576116306110ea565b5b61163d878288016114bc565b925050606085013567ffffffffffffffff81111561165e5761165d6110ea565b5b61166a878288016114bc565b91505092959194509250565b61167f81611379565b811461168a57600080fd5b50565b60008135905061169c81611676565b92915050565b6000602082840312156116b8576116b76110e5565b5b60006116c68482850161168d565b91505092915050565b600082825260208201905092915050565b7f4f776e61626c653a2063616c6c6572206973206e6f7420746865206f776e6572600082015250565b60006117166020836116cf565b9150611721826116e0565b602082019050919050565b6000602082019050818103600083015261174581611709565b9050919050565b7f496e73756666696369656e742062616c616e6365210000000000000000000000600082015250565b60006117826015836116cf565b915061178d8261174c565b602082019050919050565b600060208201905081810360008301526117b181611775565b9050919050565b60006117c38261104c565b91506117ce8361104c565b9250828210156117e1576117e0611056565b5b828203905092915050565b600081905092915050565b7f5769746864726177616c2066726f6d2050617373776f7264204d616e61676572600082015250565b600061182d6020836117ec565b9150611838826117f7565b602082019050919050565b600061184e82611820565b9150819050919050565b7f546865726520617265206e6f2070617373776f72647320746f2072657472696560008201527f7665210000000000000000000000000000000000000000000000000000000000602082015250565b60006118b46023836116cf565b91506118bf82611858565b604082019050919050565b600060208201905081810360008301526118e3816118a7565b9050919050565b7f4e487b7100000000000000000000000000000000000000000000000000000000600052602260045260246000fd5b6000600282049050600182168061193157607f821691505b60208210811415611945576119446118ea565b5b50919050565b60006060830160008301518482036000860152611968828261120a565b91505060208301518482036020860152611982828261120a565b9150506040830151848203604086015261199c828261120a565b9150508091505092915050565b600060208201905081810360008301526119c3818461194b565b905092915050565b7f4e487b7100000000000000000000000000000000000000000000000000000000600052603260045260246000fd5b7f4e487b7100000000000000000000000000000000000000000000000000000000600052603160045260246000fd5b7f4f776e61626c653a206e6577206f776e657220697320746865207a65726f206160008201527f6464726573730000000000000000000000000000000000000000000000000000602082015250565b6000611a856026836116cf565b9150611a9082611a29565b604082019050919050565b60006020820190508181036000830152611ab481611a78565b905091905056fea264697066735822122096a0130d0fd595a91725005dfc9487fdccd3a88409dc51b5b2626af33ef6b3f564736f6c63430008090033",
  "immutableReferences": {},
  "source": "// SPDX-License-Identifier: MIT\npragma solidity ^0.8.0;\n\nimport \"@openzeppelin/contracts/access/Ownable.sol\";\n\ncontract PasswordManager is Ownable{\n\n    //fallback function\n    fallback() payable external {\n    balance += msg.value;\n    }\n\n    receive() payable external {\n    balance += msg.value;\n    }\n\n    //TODO Comments\n\n    //TODO Use at least two design patterns from the \"Smart Contracts\" section\n\n    //TODO Protect against two attack vectors from the \"Smart Contracts\" section with its the SWC number\n\n    //TODO Inherits from at least one library or interface\n\n    //TODO Can be easily compiled, migrated and tested\n    //TODO Have at least five unit tests for your smart contract(s) that pass. \n    //In the code, include a sentence or two explaining what the tests are covering their expected behavior.\n\n    /* Events */\n    event PasswordSaved(address indexed sender, Password pw);\n\n    event PasswordDeleted(address indexed sender);\n\n    event PasswordUpdated(address indexed sender);\n\n    // address public owner;\n\n    //contract ballance\n    uint public balance;\n\n    //Create struct for passwords\n    struct Password {\n        string domain;\n        string username;\n        string password;\n    }\n\n    //Have mapping for storing passwords\n    mapping(address => Password[]) private passwords;\n\n\n    // constructor() {\n    //     owner = msg.sender;\n    // }\n\n    /* Modifiers - maybe? */\n    modifier hasAPassword {\n        require(passwords[msg.sender].length > 0, \"There are no passwords to retrieve!\");\n        _;\n    }\n    \n    //Removed this modifier after added OpenZeppelin\n    // modifier onlyOwner {\n    //     require(msg.sender == owner, \"Only the owner can access this function!\");\n    //     _;\n    // }\n\n\n    function getPasswordList() public view hasAPassword returns (Password[] memory){ //not sure yet whether to use the Password struct or to break it down into its components as arguments \n\n        //return password list\n        return passwords[msg.sender];\n    }\n\n    function saveNewPassword(string memory _domain, string memory _username, string memory _password) public payable returns (bool){\n\n        //- Prepare passord\n        Password memory encryptedPassword = Password({domain: _domain, username: _username, password: _password});\n\n        //add to passwords mapping\n        passwords[msg.sender].push(encryptedPassword);\n\n\n\n        emit PasswordSaved(msg.sender, encryptedPassword);\n\n        //return true\n        return true;\n    }\n\n    function updatePassword(uint _index, string memory _updatedDomain, string memory _updatedUsername, string memory _updatedPassword) public hasAPassword returns (bool){ \n        //- ?Check if it exists in mapping (may be done at browser level)\n        // require(passwords[msg.sender], \"You do not have a password stored.\");\n\n        passwords[msg.sender][_index] = Password({domain: _updatedDomain, username: _updatedUsername, password: _updatedPassword});\n\n        emit PasswordUpdated(msg.sender);\n        \n        //return true\n        return true;\n    }\n\n    function deletePassword(uint _index) public hasAPassword returns (bool){ //not sure yet whether to use the Password struct or to break it down into its components as arguments \n\n        //- ?Check if it exists in mapping (may be done at browser level)\n        // require(passwords[msg.sender], \"You do not have a password stored.\");\n        \n        uint l = passwords[msg.sender].length;\n        \n        if (l > 1) {\n            passwords[msg.sender][_index] = passwords[msg.sender][l - 1];\n        }\n        \n        passwords[msg.sender].pop();\n       \n        emit PasswordDeleted(msg.sender);\n        \n        //return true\n        return true;\n    }\n\n\n\n    //function to withdraw funds from contract - onlyOwner\n    function withdraw(uint _amountToWithdraw) public payable onlyOwner returns (bool) {\n        require(_amountToWithdraw <= balance, \"Insufficient balance!\");\n        balance -= _amountToWithdraw;\n        (bool success, ) = msg.sender.call{value: _amountToWithdraw}(\"Withdrawal from Password Manager\");\n        require(success);\n        \n        return true;\n    }\n    \n    \n}",
  "sourcePath": "/Users/Saad/Documents/Personal/Personal_Growth/Bootcamp/Final Project/blockchain-developer-bootcamp-final-project/contracts/PasswordManager.sol",
  "compiler": {
    "name": "solc",
    "version": "0.8.9+commit.e5eed63a.Emscripten.clang"
  },
  "schemaVersion": "3.4.3",
  "updatedAt": "2021-10-22T09:22:37.631Z",
  "networkType": "ethereum",
  "devdoc": {
    "kind": "dev",
    "methods": {
      "owner()": {
        "details": "Returns the address of the current owner."
      },
      "renounceOwnership()": {
        "details": "Leaves the contract without owner. It will not be possible to call `onlyOwner` functions anymore. Can only be called by the current owner. NOTE: Renouncing ownership will leave the contract without an owner, thereby removing any functionality that is only available to the owner."
      },
      "transferOwnership(address)": {
        "details": "Transfers ownership of the contract to a new account (`newOwner`). Can only be called by the current owner."
      }
    },
    "version": 1
  },
  "userdoc": {
    "kind": "user",
    "methods": {},
    "version": 1
  }
}