{
  "contractName": "PasswordManager",
  "abi": [
    {
      "anonymous": false,
      "inputs": [
        {
          "indexed": true,
          "internalType": "address",
          "name": "previousOwner",
          "type": "address"
        },
        {
          "indexed": true,
          "internalType": "address",
          "name": "newOwner",
          "type": "address"
        }
      ],
      "name": "OwnershipTransferred",
      "type": "event"
    },
    {
      "anonymous": false,
      "inputs": [
        {
          "indexed": true,
          "internalType": "address",
          "name": "deletedBy",
          "type": "address"
        }
      ],
      "name": "PasswordDeleted",
      "type": "event"
    },
    {
      "anonymous": false,
      "inputs": [
        {
          "indexed": true,
          "internalType": "address",
          "name": "savedBy",
          "type": "address"
        }
      ],
      "name": "PasswordSaved",
      "type": "event"
    },
    {
      "anonymous": false,
      "inputs": [
        {
          "indexed": true,
          "internalType": "address",
          "name": "updatedBy",
          "type": "address"
        }
      ],
      "name": "PasswordUpdated",
      "type": "event"
    },
    {
      "stateMutability": "payable",
      "type": "fallback",
      "payable": true
    },
    {
      "inputs": [],
      "name": "balance",
      "outputs": [
        {
          "internalType": "uint256",
          "name": "",
          "type": "uint256"
        }
      ],
      "stateMutability": "view",
      "type": "function",
      "constant": true
    },
    {
      "inputs": [],
      "name": "busy",
      "outputs": [
        {
          "internalType": "bool",
          "name": "",
          "type": "bool"
        }
      ],
      "stateMutability": "view",
      "type": "function",
      "constant": true
    },
    {
      "inputs": [],
      "name": "owner",
      "outputs": [
        {
          "internalType": "address",
          "name": "",
          "type": "address"
        }
      ],
      "stateMutability": "view",
      "type": "function",
      "constant": true
    },
    {
      "inputs": [],
      "name": "renounceOwnership",
      "outputs": [],
      "stateMutability": "nonpayable",
      "type": "function"
    },
    {
      "inputs": [
        {
          "internalType": "address",
          "name": "newOwner",
          "type": "address"
        }
      ],
      "name": "transferOwnership",
      "outputs": [],
      "stateMutability": "nonpayable",
      "type": "function"
    },
    {
      "stateMutability": "payable",
      "type": "receive",
      "payable": true
    },
    {
      "inputs": [],
      "name": "getPasswordList",
      "outputs": [
        {
          "components": [
            {
              "internalType": "string",
              "name": "unencryptedPart",
              "type": "string"
            },
            {
              "internalType": "string",
              "name": "encryptedPart",
              "type": "string"
            }
          ],
          "internalType": "struct PasswordManager.Password[]",
          "name": "",
          "type": "tuple[]"
        }
      ],
      "stateMutability": "view",
      "type": "function",
      "constant": true
    },
    {
      "inputs": [
        {
          "internalType": "string",
          "name": "_unencryptedPart",
          "type": "string"
        },
        {
          "internalType": "string",
          "name": "_encryptedPart",
          "type": "string"
        }
      ],
      "name": "saveNewPassword",
      "outputs": [
        {
          "internalType": "bool",
          "name": "",
          "type": "bool"
        }
      ],
      "stateMutability": "payable",
      "type": "function",
      "payable": true
    },
    {
      "inputs": [
        {
          "internalType": "uint256",
          "name": "_index",
          "type": "uint256"
        },
        {
          "internalType": "string",
          "name": "_unencryptedPart",
          "type": "string"
        },
        {
          "internalType": "string",
          "name": "_encryptedPart",
          "type": "string"
        }
      ],
      "name": "updatePassword",
      "outputs": [
        {
          "internalType": "bool",
          "name": "",
          "type": "bool"
        }
      ],
      "stateMutability": "nonpayable",
      "type": "function"
    },
    {
      "inputs": [
        {
          "internalType": "uint256",
          "name": "_index",
          "type": "uint256"
        }
      ],
      "name": "deletePassword",
      "outputs": [
        {
          "internalType": "bool",
          "name": "",
          "type": "bool"
        }
      ],
      "stateMutability": "nonpayable",
      "type": "function"
    },
    {
      "inputs": [
        {
          "internalType": "uint256",
          "name": "_amountToWithdraw",
          "type": "uint256"
        }
      ],
      "name": "withdraw",
      "outputs": [
        {
          "internalType": "bool",
          "name": "",
          "type": "bool"
        }
      ],
      "stateMutability": "payable",
      "type": "function",
      "payable": true
    }
  ],
  "bytecode": "0x60806040526000600260006101000a81548160ff02191690831515021790555034801561002b57600080fd5b5061004861003d61004d60201b60201c565b61005560201b60201c565b610119565b600033905090565b60008060009054906101000a900473ffffffffffffffffffffffffffffffffffffffff169050816000806101000a81548173ffffffffffffffffffffffffffffffffffffffff021916908373ffffffffffffffffffffffffffffffffffffffff1602179055508173ffffffffffffffffffffffffffffffffffffffff168173ffffffffffffffffffffffffffffffffffffffff167f8be0079c531659141344cd1fd0a4f28419497f9722a3daafe3b4186f6b6457e060405160405180910390a35050565b611b6d806101286000396000f3fe6080604052600436106100955760003560e01c80638da5cb5b116100595780638da5cb5b1461019d5780639d3cf4c3146101c8578063b69ef8a814610205578063c3b3863c14610230578063f2fde38b1461026d576100b5565b80632e1a7d4d146100d057806330641b5a146101005780635e9939171461012b57806361c681101461015b578063715018a614610186576100b5565b366100b55734600160008282546100ac9190611925565b92505081905550005b34600160008282546100c79190611925565b92505081905550005b6100ea60048036038101906100e5919061135e565b610296565b6040516100f7919061177d565b60405180910390f35b34801561010c57600080fd5b50610115610478565b604051610122919061177d565b60405180910390f35b610145600480360381019061014091906112f2565b61048b565b604051610152919061177d565b60405180910390f35b34801561016757600080fd5b5061017061061f565b60405161017d919061175b565b60405180910390f35b34801561019257600080fd5b5061019b610864565b005b3480156101a957600080fd5b506101b26108ec565b6040516101bf9190611740565b60405180910390f35b3480156101d457600080fd5b506101ef60048036038101906101ea9190611387565b610915565b6040516101fc919061177d565b60405180910390f35b34801561021157600080fd5b5061021a610b4c565b6040516102279190611838565b60405180910390f35b34801561023c57600080fd5b506102576004803603810190610252919061135e565b610b52565b604051610264919061177d565b60405180910390f35b34801561027957600080fd5b50610294600480360381019061028f91906112c9565b610f03565b005b60006102a0610ffb565b73ffffffffffffffffffffffffffffffffffffffff166102be6108ec565b73ffffffffffffffffffffffffffffffffffffffff1614610314576040517f08c379a000000000000000000000000000000000000000000000000000000000815260040161030b906117f8565b60405180910390fd5b600260009054906101000a900460ff1615610364576040517f08c379a000000000000000000000000000000000000000000000000000000000815260040161035b906117d8565b60405180910390fd5b6001600260006101000a81548160ff0219169083151502179055506001548211156103c4576040517f08c379a00000000000000000000000000000000000000000000000000000000081526004016103bb90611818565b60405180910390fd5b81600160008282546103d6919061197b565b9250508190555060003373ffffffffffffffffffffffffffffffffffffffff16836040516104039061172b565b60006040518083038185875af1925050503d8060008114610440576040519150601f19603f3d011682016040523d82523d6000602084013e610445565b606091505b505090508061045357600080fd5b60019150506000600260006101000a81548160ff021916908315150217905550919050565b600260009054906101000a900460ff1681565b6000600260009054906101000a900460ff16156104dd576040517f08c379a00000000000000000000000000000000000000000000000000000000081526004016104d4906117d8565b60405180910390fd5b6001600260006101000a81548160ff02191690831515021790555060006040518060400160405280858152602001848152509050600360003373ffffffffffffffffffffffffffffffffffffffff1673ffffffffffffffffffffffffffffffffffffffff16815260200190815260200160002081908060018154018082558091505060019003906000526020600020906002020160009091909190915060008201518160000190805190602001906105969291906110c7565b5060208201518160010190805190602001906105b39291906110c7565b5050503373ffffffffffffffffffffffffffffffffffffffff167f10910cdf3aebdcc884da1eb28ae416a1668775d62bb37c55af8462779a37fedd60405160405180910390a260019150506000600260006101000a81548160ff02191690831515021790555092915050565b60606000600360003373ffffffffffffffffffffffffffffffffffffffff1673ffffffffffffffffffffffffffffffffffffffff16815260200190815260200160002080549050116106a6576040517f08c379a000000000000000000000000000000000000000000000000000000000815260040161069d906117b8565b60405180910390fd5b600360003373ffffffffffffffffffffffffffffffffffffffff1673ffffffffffffffffffffffffffffffffffffffff168152602001908152602001600020805480602002602001604051908101604052809291908181526020016000905b8282101561085b578382906000526020600020906002020160405180604001604052908160008201805461073890611a39565b80601f016020809104026020016040519081016040528092919081815260200182805461076490611a39565b80156107b15780601f10610786576101008083540402835291602001916107b1565b820191906000526020600020905b81548152906001019060200180831161079457829003601f168201915b505050505081526020016001820180546107ca90611a39565b80601f01602080910402602001604051908101604052809291908181526020018280546107f690611a39565b80156108435780601f1061081857610100808354040283529160200191610843565b820191906000526020600020905b81548152906001019060200180831161082657829003601f168201915b50505050508152505081526020019060010190610705565b50505050905090565b61086c610ffb565b73ffffffffffffffffffffffffffffffffffffffff1661088a6108ec565b73ffffffffffffffffffffffffffffffffffffffff16146108e0576040517f08c379a00000000000000000000000000000000000000000000000000000000081526004016108d7906117f8565b60405180910390fd5b6108ea6000611003565b565b60008060009054906101000a900473ffffffffffffffffffffffffffffffffffffffff16905090565b600080600360003373ffffffffffffffffffffffffffffffffffffffff1673ffffffffffffffffffffffffffffffffffffffff168152602001908152602001600020805490501161099b576040517f08c379a0000000000000000000000000000000000000000000000000000000008152600401610992906117b8565b60405180910390fd5b600260009054906101000a900460ff16156109eb576040517f08c379a00000000000000000000000000000000000000000000000000000000081526004016109e2906117d8565b60405180910390fd5b6001600260006101000a81548160ff0219169083151502179055506000604051806040016040528085815260200184815250905080600360003373ffffffffffffffffffffffffffffffffffffffff1673ffffffffffffffffffffffffffffffffffffffff1681526020019081526020016000208681548110610a97577f4e487b7100000000000000000000000000000000000000000000000000000000600052603260045260246000fd5b90600052602060002090600202016000820151816000019080519060200190610ac19291906110c7565b506020820151816001019080519060200190610ade9291906110c7565b509050503373ffffffffffffffffffffffffffffffffffffffff167f59d5e5502067ddbcd17d342059dce1fd469d88df519507513e7b392a068a936160405160405180910390a260019150506000600260006101000a81548160ff0219169083151502179055509392505050565b60015481565b600080600360003373ffffffffffffffffffffffffffffffffffffffff1673ffffffffffffffffffffffffffffffffffffffff1681526020019081526020016000208054905011610bd8576040517f08c379a0000000000000000000000000000000000000000000000000000000008152600401610bcf906117b8565b60405180910390fd5b600260009054906101000a900460ff1615610c28576040517f08c379a0000000000000000000000000000000000000000000000000000000008152600401610c1f906117d8565b60405180910390fd5b6001600260006101000a81548160ff0219169083151502179055506000600360003373ffffffffffffffffffffffffffffffffffffffff1673ffffffffffffffffffffffffffffffffffffffff1681526020019081526020016000208054905090506001811115610ded57600360003373ffffffffffffffffffffffffffffffffffffffff1673ffffffffffffffffffffffffffffffffffffffff168152602001908152602001600020600182610cdf919061197b565b81548110610d16577f4e487b7100000000000000000000000000000000000000000000000000000000600052603260045260246000fd5b9060005260206000209060020201600360003373ffffffffffffffffffffffffffffffffffffffff1673ffffffffffffffffffffffffffffffffffffffff1681526020019081526020016000208481548110610d9b577f4e487b7100000000000000000000000000000000000000000000000000000000600052603260045260246000fd5b90600052602060002090600202016000820181600001908054610dbd90611a39565b610dc892919061114d565b506001820181600101908054610ddd90611a39565b610de892919061114d565b509050505b600360003373ffffffffffffffffffffffffffffffffffffffff1673ffffffffffffffffffffffffffffffffffffffff168152602001908152602001600020805480610e62577f4e487b7100000000000000000000000000000000000000000000000000000000600052603160045260246000fd5b600190038181906000526020600020906002020160008082016000610e8791906111da565b600182016000610e9791906111da565b505090553373ffffffffffffffffffffffffffffffffffffffff167fc9136657b3a49b964bfc5c2a296352dadb93eb43d997f910bfeda105bd5a640560405160405180910390a260019150506000600260006101000a81548160ff021916908315150217905550919050565b610f0b610ffb565b73ffffffffffffffffffffffffffffffffffffffff16610f296108ec565b73ffffffffffffffffffffffffffffffffffffffff1614610f7f576040517f08c379a0000000000000000000000000000000000000000000000000000000008152600401610f76906117f8565b60405180910390fd5b600073ffffffffffffffffffffffffffffffffffffffff168173ffffffffffffffffffffffffffffffffffffffff161415610fef576040517f08c379a0000000000000000000000000000000000000000000000000000000008152600401610fe690611798565b60405180910390fd5b610ff881611003565b50565b600033905090565b60008060009054906101000a900473ffffffffffffffffffffffffffffffffffffffff169050816000806101000a81548173ffffffffffffffffffffffffffffffffffffffff021916908373ffffffffffffffffffffffffffffffffffffffff1602179055508173ffffffffffffffffffffffffffffffffffffffff168173ffffffffffffffffffffffffffffffffffffffff167f8be0079c531659141344cd1fd0a4f28419497f9722a3daafe3b4186f6b6457e060405160405180910390a35050565b8280546110d390611a39565b90600052602060002090601f0160209004810192826110f5576000855561113c565b82601f1061110e57805160ff191683800117855561113c565b8280016001018555821561113c579182015b8281111561113b578251825591602001919060010190611120565b5b509050611149919061121a565b5090565b82805461115990611a39565b90600052602060002090601f01602090048101928261117b57600085556111c9565b82601f1061118c57805485556111c9565b828001600101855582156111c957600052602060002091601f016020900482015b828111156111c85782548255916001019190600101906111ad565b5b5090506111d6919061121a565b5090565b5080546111e690611a39565b6000825580601f106111f85750611217565b601f016020900490600052602060002090810190611216919061121a565b5b50565b5b8082111561123357600081600090555060010161121b565b5090565b600061124a61124584611884565b611853565b90508281526020810184848401111561126257600080fd5b61126d8482856119f7565b509392505050565b60008135905061128481611b09565b92915050565b600082601f83011261129b57600080fd5b81356112ab848260208601611237565b91505092915050565b6000813590506112c381611b20565b92915050565b6000602082840312156112db57600080fd5b60006112e984828501611275565b91505092915050565b6000806040838503121561130557600080fd5b600083013567ffffffffffffffff81111561131f57600080fd5b61132b8582860161128a565b925050602083013567ffffffffffffffff81111561134857600080fd5b6113548582860161128a565b9150509250929050565b60006020828403121561137057600080fd5b600061137e848285016112b4565b91505092915050565b60008060006060848603121561139c57600080fd5b60006113aa868287016112b4565b935050602084013567ffffffffffffffff8111156113c757600080fd5b6113d38682870161128a565b925050604084013567ffffffffffffffff8111156113f057600080fd5b6113fc8682870161128a565b9150509250925092565b600061141283836116d8565b905092915050565b611423816119af565b82525050565b6000611434826118c4565b61143e81856118e7565b935083602082028501611450856118b4565b8060005b8581101561148c578484038952815161146d8582611406565b9450611478836118da565b925060208a01995050600181019050611454565b50829750879550505050505092915050565b6114a7816119c1565b82525050565b60006114b8826118cf565b6114c28185611903565b93506114d2818560208601611a06565b6114db81611af8565b840191505092915050565b60006114f3602683611914565b91507f4f776e61626c653a206e6577206f776e657220697320746865207a65726f206160008301527f64647265737300000000000000000000000000000000000000000000000000006020830152604082019050919050565b6000611559602383611914565b91507f546865726520617265206e6f2070617373776f72647320746f2072657472696560008301527f76652100000000000000000000000000000000000000000000000000000000006020830152604082019050919050565b60006115bf6020836118f8565b91507f5769746864726177616c2066726f6d2050617373776f7264204d616e616765726000830152602082019050919050565b60006115ff602e83611914565b91507f5468652070726576696f75732072657175657374206973207374696c6c20626560008301527f696e672070726f636573736564210000000000000000000000000000000000006020830152604082019050919050565b6000611665602083611914565b91507f4f776e61626c653a2063616c6c6572206973206e6f7420746865206f776e65726000830152602082019050919050565b60006116a5601583611914565b91507f496e73756666696369656e742062616c616e63652100000000000000000000006000830152602082019050919050565b600060408301600083015184820360008601526116f582826114ad565b9150506020830151848203602086015261170f82826114ad565b9150508091505092915050565b611725816119ed565b82525050565b6000611736826115b2565b9150819050919050565b6000602082019050611755600083018461141a565b92915050565b600060208201905081810360008301526117758184611429565b905092915050565b6000602082019050611792600083018461149e565b92915050565b600060208201905081810360008301526117b1816114e6565b9050919050565b600060208201905081810360008301526117d18161154c565b9050919050565b600060208201905081810360008301526117f1816115f2565b9050919050565b6000602082019050818103600083015261181181611658565b9050919050565b6000602082019050818103600083015261183181611698565b9050919050565b600060208201905061184d600083018461171c565b92915050565b6000604051905081810181811067ffffffffffffffff8211171561187a57611879611ac9565b5b8060405250919050565b600067ffffffffffffffff82111561189f5761189e611ac9565b5b601f19601f8301169050602081019050919050565b6000819050602082019050919050565b600081519050919050565b600081519050919050565b6000602082019050919050565b600082825260208201905092915050565b600081905092915050565b600082825260208201905092915050565b600082825260208201905092915050565b6000611930826119ed565b915061193b836119ed565b9250827fffffffffffffffffffffffffffffffffffffffffffffffffffffffffffffffff038211156119705761196f611a6b565b5b828201905092915050565b6000611986826119ed565b9150611991836119ed565b9250828210156119a4576119a3611a6b565b5b828203905092915050565b60006119ba826119cd565b9050919050565b60008115159050919050565b600073ffffffffffffffffffffffffffffffffffffffff82169050919050565b6000819050919050565b82818337600083830152505050565b60005b83811015611a24578082015181840152602081019050611a09565b83811115611a33576000848401525b50505050565b60006002820490506001821680611a5157607f821691505b60208210811415611a6557611a64611a9a565b5b50919050565b7f4e487b7100000000000000000000000000000000000000000000000000000000600052601160045260246000fd5b7f4e487b7100000000000000000000000000000000000000000000000000000000600052602260045260246000fd5b7f4e487b7100000000000000000000000000000000000000000000000000000000600052604160045260246000fd5b6000601f19601f8301169050919050565b611b12816119af565b8114611b1d57600080fd5b50565b611b29816119ed565b8114611b3457600080fd5b5056fea2646970667358221220a86479408e039b6dd683742a3004f261acce4e01397d38806e6f3eaab3721f6c64736f6c63430008000033",
  "immutableReferences": {},
  "source": "// SPDX-License-Identifier: MIT\npragma solidity 0.8.0;\n\nimport \"@openzeppelin/contracts/access/Ownable.sol\";\n\n/// @title A password manager\n/// @author SHHS\n/// @notice You can use this contract for only the most basic simulation\n/// @dev All function calls are currently implemented without side effects\n/// @dev Inherits OpenZeppelin's Ownable module\ncontract PasswordManager is Ownable{\n\n    //fallback function\n    /// @notice Receive Eth\n    /// @dev Receive Eth if data is empty\n    fallback() payable external {\n    balance += msg.value;\n    }\n\n    //receive function \n    /// @notice Receive Eth\n    /// @dev Receive Eth if data is not empty\n    receive() payable external {\n    balance += msg.value;\n    }\n\n    //TODO Comments - Done: Added Natspec Format comments.\n\n    //TODO Use at least two design patterns from the \"Smart Contracts\" section - Done: Added to design_pattern_decisions.md\n\n    //TODO Protect against two attack vectors from the \"Smart Contracts\" section with its the SWC number - Done: Added to avoiding_common_attacks.md\n\n    //TODO Inherits from at least one library or interface - Done: Inherits from Openzeppelin's Ownable\n\n    //TODO Can be easily compiled, migrated and tested\n    //TODO Have at least five unit tests for your smart contract(s) that pass. - Done: Have six tests that pass.\n    //In the code, include a sentence or two explaining what the tests are covering their expected behavior. - Done: added comments to the tests.\n\n    /* Events */\n    /// @notice Event emitted when a password is saved\n    /// @param savedBy The address of the msg.sender who saved the password\n    event PasswordSaved(address indexed savedBy);\n\n    /// @notice Event emitted when a password is deleted\n    /// @param deletedBy The address of the msg.sender who deleted the password\n    event PasswordDeleted(address indexed deletedBy);\n\n    /// @notice Event emitted when a password is updated\n    /// @param updatedBy The address of the msg.sender who updated the password\n    event PasswordUpdated(address indexed updatedBy);\n\n    // address public owner;\n\n    //contract ballance\n    /// @notice The balance of Eth in the contract\n    /// @return The balance of Eth in the contract (when the automatic getter function is called)\n    uint public balance;\n\n    /// @notice Indicator of whether some functions did not complete\n    /// @dev Used to prevent re-entrancy attacks\n    bool public busy = false;\n\n\n    //Mpping for storing passwords\n    mapping(address => Password[]) private passwords;\n\n\n    //Struct for storing passwords\n    //Contains a string with unencrypted Domain\n    //Contains a string with encrypted username and password\n    struct Password{\n        string unencryptedPart;\n        string encryptedPart;\n    }\n\n\n    /* Modifiers*/\n    modifier hasAPassword {\n        require(passwords[msg.sender].length > 0, \"There are no passwords to retrieve!\");\n        _;\n    }\n\n    /// @notice Check whether some functions did not complete\n    /// @dev Used to prevent re-entrancy attacks    \n    modifier cannotBeBusy {\n        require(!busy, \"The previous request is still being processed!\");\n        busy = true;\n        _;\n        busy = false;\n    }\n\n    /// @notice Retrieve array of passwords saved for address that called the function (msg.sender)\n    /// @dev The msg.sender address must have password(s) saved in the passwords mapping. Otherwise, the hasAPassword modifier throws an error.\n    /// @return Array of passwords saved for address that called the function (msg.sender)\n    function getPasswordList() public view hasAPassword returns (Password[] memory){\n\n        //return password list\n        return passwords[msg.sender];\n    }\n\n    /// @notice Save new password to array of passwords saved for address that called the function (msg.sender)\n    /// @dev Function is payable\n    /// @dev cannotBeBusy modifier checks whether some functions did not complete; used to prevent re-entrancy attacks\n    /// @param _unencryptedPart The new unencrypted part of the password to be saved\n    /// @param _encryptedPart The new encrypted part of the password to be saved\n    /// @return True once the save operation is complete\n    function saveNewPassword(string memory _unencryptedPart, string memory _encryptedPart) public payable cannotBeBusy returns (bool){\n\n        //Assemble the password parts into the Password struct\n        Password memory _newPassword = Password(_unencryptedPart, _encryptedPart);\n\n        //add to passwords mapping\n        passwords[msg.sender].push(_newPassword);\n\n        emit PasswordSaved(msg.sender);\n\n        //return true\n        return true;\n    }\n\n    /// @notice Update password already saved in array of Password structs\n    /// @dev The msg.sender address must have passwords saved in the passwords mapping. Otherwise, the hasAPassword modifier throws an error.\n    /// @dev cannotBeBusy modifier checks whether some functions did not complete; used to prevent re-entrancy attacks\n    /// @param _index The index of the password to be updated\n    /// @param _unencryptedPart The unencrypted part of the password to be updated\n    /// @param _encryptedPart The encrypted part of the password to be updated\n    /// @return True once the update operation is complete\n    function updatePassword(uint _index, string memory _unencryptedPart, string memory _encryptedPart) public hasAPassword cannotBeBusy returns (bool){ \n\n        //Assemble the password parts into the Password struct\n        Password memory _updatedPassword = Password(_unencryptedPart, _encryptedPart);\n        \n        //update password\n        passwords[msg.sender][_index] = _updatedPassword;\n\n        emit PasswordUpdated(msg.sender);\n        \n        //return true\n        return true;\n    }\n\n    /// @notice Delete password already saved in array of passwords\n    /// @dev The msg.sender address must have passwords saved in the passwords mapping. Otherwise, the hasAPassword modifier throws an error.\n    /// @dev cannotBeBusy modifier checks whether some functions did not complete; used to prevent re-entrancy attacks\n    /// @param _index The index of the Password struct to be deleted\n    /// @return True once the delete operation is complete\n    function deletePassword(uint _index) public hasAPassword cannotBeBusy returns (bool){ //not sure yet whether to use the Password struct or to break it down into its components as arguments \n\n        \n        uint l = passwords[msg.sender].length;\n        \n        if (l > 1) {\n            passwords[msg.sender][_index] = passwords[msg.sender][l - 1];\n        }\n        \n        passwords[msg.sender].pop();\n       \n        emit PasswordDeleted(msg.sender);\n        \n        //return true\n        return true;\n    }\n\n\n\n    //function to withdraw funds from contract - onlyOwner\n    /// @notice Withdraw Eth from contract\n    /// @dev Only the owner of the contract can withdraw\n    /// @dev cannotBeBusy modifier checks whether some functions did not complete; used to prevent re-entrancy attacks\n    /// @dev Amount to withdraw cannot be more than balance in the contract\n    /// @param _amountToWithdraw Amount of Eth (Wei) to be withdrawn from the contract\n    /// @return True if the withdraw is successful\n    function withdraw(uint _amountToWithdraw) public payable onlyOwner cannotBeBusy returns (bool) {\n        require(_amountToWithdraw <= balance, \"Insufficient balance!\");\n        balance -= _amountToWithdraw;\n        (bool success, ) = msg.sender.call{value: _amountToWithdraw}(\"Withdrawal from Password Manager\");\n        require(success);\n        \n        return true;\n    }\n    \n    \n}",
  "sourcePath": "/Users/Saad/Documents/Personal/Personal_Growth/Bootcamp/Final Project/blockchain-developer-bootcamp-final-project/contracts/PasswordManager.sol",
  "compiler": {
    "name": "solc",
    "version": "0.8.0+commit.c7dfd78e.Emscripten.clang"
  },
  "schemaVersion": "3.4.3",
  "updatedAt": "2021-11-07T09:53:59.088Z",
  "networkType": "ethereum",
  "devdoc": {
    "author": "SHHS",
    "details": "All function calls are currently implemented without side effectsInherits OpenZeppelin's Ownable module",
    "events": {
      "PasswordDeleted(address)": {
        "params": {
          "deletedBy": "The address of the msg.sender who deleted the password"
        }
      },
      "PasswordSaved(address)": {
        "params": {
          "savedBy": "The address of the msg.sender who saved the password"
        }
      },
      "PasswordUpdated(address)": {
        "params": {
          "updatedBy": "The address of the msg.sender who updated the password"
        }
      }
    },
    "kind": "dev",
    "methods": {
      "deletePassword(uint256)": {
        "details": "The msg.sender address must have passwords saved in the passwords mapping. Otherwise, the hasAPassword modifier throws an error.cannotBeBusy modifier checks whether some functions did not complete; used to prevent re-entrancy attacks",
        "params": {
          "_index": "The index of the Password struct to be deleted"
        },
        "returns": {
          "_0": "True once the delete operation is complete"
        }
      },
      "getPasswordList()": {
        "details": "The msg.sender address must have password(s) saved in the passwords mapping. Otherwise, the hasAPassword modifier throws an error.",
        "returns": {
          "_0": "Array of passwords saved for address that called the function (msg.sender)"
        }
      },
      "owner()": {
        "details": "Returns the address of the current owner."
      },
      "renounceOwnership()": {
        "details": "Leaves the contract without owner. It will not be possible to call `onlyOwner` functions anymore. Can only be called by the current owner. NOTE: Renouncing ownership will leave the contract without an owner, thereby removing any functionality that is only available to the owner."
      },
      "saveNewPassword(string,string)": {
        "details": "Function is payablecannotBeBusy modifier checks whether some functions did not complete; used to prevent re-entrancy attacks",
        "params": {
          "_encryptedPart": "The new encrypted part of the password to be saved",
          "_unencryptedPart": "The new unencrypted part of the password to be saved"
        },
        "returns": {
          "_0": "True once the save operation is complete"
        }
      },
      "transferOwnership(address)": {
        "details": "Transfers ownership of the contract to a new account (`newOwner`). Can only be called by the current owner."
      },
      "updatePassword(uint256,string,string)": {
        "details": "The msg.sender address must have passwords saved in the passwords mapping. Otherwise, the hasAPassword modifier throws an error.cannotBeBusy modifier checks whether some functions did not complete; used to prevent re-entrancy attacks",
        "params": {
          "_encryptedPart": "The encrypted part of the password to be updated",
          "_index": "The index of the password to be updated",
          "_unencryptedPart": "The unencrypted part of the password to be updated"
        },
        "returns": {
          "_0": "True once the update operation is complete"
        }
      },
      "withdraw(uint256)": {
        "details": "Only the owner of the contract can withdrawcannotBeBusy modifier checks whether some functions did not complete; used to prevent re-entrancy attacksAmount to withdraw cannot be more than balance in the contract",
        "params": {
          "_amountToWithdraw": "Amount of Eth (Wei) to be withdrawn from the contract"
        },
        "returns": {
          "_0": "True if the withdraw is successful"
        }
      }
    },
    "stateVariables": {
      "balance": {
        "return": "The balance of Eth in the contract (when the automatic getter function is called)"
      },
      "busy": {
        "details": "Used to prevent re-entrancy attacks"
      }
    },
    "title": "A password manager",
    "version": 1
  },
  "userdoc": {
    "events": {
      "PasswordDeleted(address)": {
        "notice": "Event emitted when a password is deleted"
      },
      "PasswordSaved(address)": {
        "notice": "Event emitted when a password is saved"
      },
      "PasswordUpdated(address)": {
        "notice": "Event emitted when a password is updated"
      }
    },
    "kind": "user",
    "methods": {
      "balance()": {
        "notice": "The balance of Eth in the contract"
      },
      "busy()": {
        "notice": "Indicator of whether some functions did not complete"
      },
      "deletePassword(uint256)": {
        "notice": "Delete password already saved in array of passwords"
      },
      "getPasswordList()": {
        "notice": "Retrieve array of passwords saved for address that called the function (msg.sender)"
      },
      "saveNewPassword(string,string)": {
        "notice": "Save new password to array of passwords saved for address that called the function (msg.sender)"
      },
      "updatePassword(uint256,string,string)": {
        "notice": "Update password already saved in array of Password structs"
      },
      "withdraw(uint256)": {
        "notice": "Withdraw Eth from contract"
      }
    },
    "notice": "You can use this contract for only the most basic simulation",
    "version": 1
  }
}