{
  "contractName": "PasswordManager",
  "abi": [
    {
      "anonymous": false,
      "inputs": [
        {
          "indexed": true,
          "internalType": "address",
          "name": "previousOwner",
          "type": "address"
        },
        {
          "indexed": true,
          "internalType": "address",
          "name": "newOwner",
          "type": "address"
        }
      ],
      "name": "OwnershipTransferred",
      "type": "event"
    },
    {
      "anonymous": false,
      "inputs": [
        {
          "indexed": true,
          "internalType": "address",
          "name": "sender",
          "type": "address"
        }
      ],
      "name": "PasswordDeleted",
      "type": "event"
    },
    {
      "anonymous": false,
      "inputs": [
        {
          "indexed": true,
          "internalType": "address",
          "name": "sender",
          "type": "address"
        },
        {
          "components": [
            {
              "internalType": "string",
              "name": "domain",
              "type": "string"
            },
            {
              "internalType": "string",
              "name": "username",
              "type": "string"
            },
            {
              "internalType": "string",
              "name": "password",
              "type": "string"
            }
          ],
          "indexed": false,
          "internalType": "struct PasswordManager.Password",
          "name": "pw",
          "type": "tuple"
        }
      ],
      "name": "PasswordSaved",
      "type": "event"
    },
    {
      "anonymous": false,
      "inputs": [
        {
          "indexed": true,
          "internalType": "address",
          "name": "sender",
          "type": "address"
        }
      ],
      "name": "PasswordUpdated",
      "type": "event"
    },
    {
      "stateMutability": "payable",
      "type": "fallback",
      "payable": true
    },
    {
      "inputs": [],
      "name": "balance",
      "outputs": [
        {
          "internalType": "uint256",
          "name": "",
          "type": "uint256"
        }
      ],
      "stateMutability": "view",
      "type": "function",
      "constant": true
    },
    {
      "inputs": [],
      "name": "busy",
      "outputs": [
        {
          "internalType": "bool",
          "name": "",
          "type": "bool"
        }
      ],
      "stateMutability": "view",
      "type": "function",
      "constant": true
    },
    {
      "inputs": [],
      "name": "owner",
      "outputs": [
        {
          "internalType": "address",
          "name": "",
          "type": "address"
        }
      ],
      "stateMutability": "view",
      "type": "function",
      "constant": true
    },
    {
      "inputs": [],
      "name": "renounceOwnership",
      "outputs": [],
      "stateMutability": "nonpayable",
      "type": "function"
    },
    {
      "inputs": [
        {
          "internalType": "address",
          "name": "newOwner",
          "type": "address"
        }
      ],
      "name": "transferOwnership",
      "outputs": [],
      "stateMutability": "nonpayable",
      "type": "function"
    },
    {
      "stateMutability": "payable",
      "type": "receive",
      "payable": true
    },
    {
      "inputs": [],
      "name": "getPasswordList",
      "outputs": [
        {
          "components": [
            {
              "internalType": "string",
              "name": "domain",
              "type": "string"
            },
            {
              "internalType": "string",
              "name": "username",
              "type": "string"
            },
            {
              "internalType": "string",
              "name": "password",
              "type": "string"
            }
          ],
          "internalType": "struct PasswordManager.Password[]",
          "name": "",
          "type": "tuple[]"
        }
      ],
      "stateMutability": "view",
      "type": "function",
      "constant": true
    },
    {
      "inputs": [
        {
          "internalType": "string",
          "name": "_domain",
          "type": "string"
        },
        {
          "internalType": "string",
          "name": "_username",
          "type": "string"
        },
        {
          "internalType": "string",
          "name": "_password",
          "type": "string"
        }
      ],
      "name": "saveNewPassword",
      "outputs": [
        {
          "internalType": "bool",
          "name": "",
          "type": "bool"
        }
      ],
      "stateMutability": "payable",
      "type": "function",
      "payable": true
    },
    {
      "inputs": [
        {
          "internalType": "uint256",
          "name": "_index",
          "type": "uint256"
        },
        {
          "internalType": "string",
          "name": "_updatedDomain",
          "type": "string"
        },
        {
          "internalType": "string",
          "name": "_updatedUsername",
          "type": "string"
        },
        {
          "internalType": "string",
          "name": "_updatedPassword",
          "type": "string"
        }
      ],
      "name": "updatePassword",
      "outputs": [
        {
          "internalType": "bool",
          "name": "",
          "type": "bool"
        }
      ],
      "stateMutability": "nonpayable",
      "type": "function"
    },
    {
      "inputs": [
        {
          "internalType": "uint256",
          "name": "_index",
          "type": "uint256"
        }
      ],
      "name": "deletePassword",
      "outputs": [
        {
          "internalType": "bool",
          "name": "",
          "type": "bool"
        }
      ],
      "stateMutability": "nonpayable",
      "type": "function"
    },
    {
      "inputs": [
        {
          "internalType": "uint256",
          "name": "_amountToWithdraw",
          "type": "uint256"
        }
      ],
      "name": "withdraw",
      "outputs": [
        {
          "internalType": "bool",
          "name": "",
          "type": "bool"
        }
      ],
      "stateMutability": "payable",
      "type": "function",
      "payable": true
    }
  ],
  "bytecode": "0x60806040526000600260006101000a81548160ff02191690831515021790555034801561002b57600080fd5b5061004861003d61004d60201b60201c565b61005560201b60201c565b610119565b600033905090565b60008060009054906101000a900473ffffffffffffffffffffffffffffffffffffffff169050816000806101000a81548173ffffffffffffffffffffffffffffffffffffffff021916908373ffffffffffffffffffffffffffffffffffffffff1602179055508173ffffffffffffffffffffffffffffffffffffffff168173ffffffffffffffffffffffffffffffffffffffff167f8be0079c531659141344cd1fd0a4f28419497f9722a3daafe3b4186f6b6457e060405160405180910390a35050565b611d6d806101286000396000f3fe6080604052600436106100955760003560e01c8063a04b6fe111610059578063a04b6fe114610198578063b69ef8a8146101c8578063c3b3863c146101f3578063d2051f8e14610230578063f2fde38b1461026d576100b5565b80632e1a7d4d146100d057806330641b5a1461010057806361c681101461012b578063715018a6146101565780638da5cb5b1461016d576100b5565b366100b55734600160008282546100ac9190611b25565b92505081905550005b34600160008282546100c79190611b25565b92505081905550005b6100ea60048036038101906100e59190611498565b610296565b6040516100f7919061195b565b60405180910390f35b34801561010c57600080fd5b50610115610478565b604051610122919061195b565b60405180910390f35b34801561013757600080fd5b5061014061048b565b60405161014d9190611939565b60405180910390f35b34801561016257600080fd5b5061016b610762565b005b34801561017957600080fd5b506101826107ea565b60405161018f919061191e565b60405180910390f35b6101b260048036038101906101ad9190611401565b610813565b6040516101bf919061195b565b60405180910390f35b3480156101d457600080fd5b506101dd6109d6565b6040516101ea9190611a38565b60405180910390f35b3480156101ff57600080fd5b5061021a60048036038101906102159190611498565b6109dc565b604051610227919061195b565b60405180910390f35b34801561023c57600080fd5b50610257600480360381019061025291906114c1565b610dbd565b604051610264919061195b565b60405180910390f35b34801561027957600080fd5b50610294600480360381019061028f91906113d8565b611012565b005b60006102a061110a565b73ffffffffffffffffffffffffffffffffffffffff166102be6107ea565b73ffffffffffffffffffffffffffffffffffffffff1614610314576040517f08c379a000000000000000000000000000000000000000000000000000000000815260040161030b906119d6565b60405180910390fd5b600260009054906101000a900460ff1615610364576040517f08c379a000000000000000000000000000000000000000000000000000000000815260040161035b906119b6565b60405180910390fd5b6001600260006101000a81548160ff0219169083151502179055506001548211156103c4576040517f08c379a00000000000000000000000000000000000000000000000000000000081526004016103bb906119f6565b60405180910390fd5b81600160008282546103d69190611b7b565b9250508190555060003373ffffffffffffffffffffffffffffffffffffffff168360405161040390611909565b60006040518083038185875af1925050503d8060008114610440576040519150601f19603f3d011682016040523d82523d6000602084013e610445565b606091505b505090508061045357600080fd5b60019150506000600260006101000a81548160ff021916908315150217905550919050565b600260009054906101000a900460ff1681565b60606000600360003373ffffffffffffffffffffffffffffffffffffffff1673ffffffffffffffffffffffffffffffffffffffff1681526020019081526020016000208054905011610512576040517f08c379a000000000000000000000000000000000000000000000000000000000815260040161050990611996565b60405180910390fd5b600360003373ffffffffffffffffffffffffffffffffffffffff1673ffffffffffffffffffffffffffffffffffffffff168152602001908152602001600020805480602002602001604051908101604052809291908181526020016000905b8282101561075957838290600052602060002090600302016040518060600160405290816000820180546105a490611c39565b80601f01602080910402602001604051908101604052809291908181526020018280546105d090611c39565b801561061d5780601f106105f25761010080835404028352916020019161061d565b820191906000526020600020905b81548152906001019060200180831161060057829003601f168201915b5050505050815260200160018201805461063690611c39565b80601f016020809104026020016040519081016040528092919081815260200182805461066290611c39565b80156106af5780601f10610684576101008083540402835291602001916106af565b820191906000526020600020905b81548152906001019060200180831161069257829003601f168201915b505050505081526020016002820180546106c890611c39565b80601f01602080910402602001604051908101604052809291908181526020018280546106f490611c39565b80156107415780601f1061071657610100808354040283529160200191610741565b820191906000526020600020905b81548152906001019060200180831161072457829003601f168201915b50505050508152505081526020019060010190610571565b50505050905090565b61076a61110a565b73ffffffffffffffffffffffffffffffffffffffff166107886107ea565b73ffffffffffffffffffffffffffffffffffffffff16146107de576040517f08c379a00000000000000000000000000000000000000000000000000000000081526004016107d5906119d6565b60405180910390fd5b6107e86000611112565b565b60008060009054906101000a900473ffffffffffffffffffffffffffffffffffffffff16905090565b6000600260009054906101000a900460ff1615610865576040517f08c379a000000000000000000000000000000000000000000000000000000000815260040161085c906119b6565b60405180910390fd5b6001600260006101000a81548160ff02191690831515021790555060006040518060600160405280868152602001858152602001848152509050600360003373ffffffffffffffffffffffffffffffffffffffff1673ffffffffffffffffffffffffffffffffffffffff16815260200190815260200160002081908060018154018082558091505060019003906000526020600020906003020160009091909190915060008201518160000190805190602001906109249291906111d6565b5060208201518160010190805190602001906109419291906111d6565b50604082015181600201908051906020019061095e9291906111d6565b5050503373ffffffffffffffffffffffffffffffffffffffff167f6ce0ac746c3dae0d04731da4df48f4ab4c9158c9130dabb57b57ed3450619612826040516109a79190611a16565b60405180910390a260019150506000600260006101000a81548160ff0219169083151502179055509392505050565b60015481565b600080600360003373ffffffffffffffffffffffffffffffffffffffff1673ffffffffffffffffffffffffffffffffffffffff1681526020019081526020016000208054905011610a62576040517f08c379a0000000000000000000000000000000000000000000000000000000008152600401610a5990611996565b60405180910390fd5b600260009054906101000a900460ff1615610ab2576040517f08c379a0000000000000000000000000000000000000000000000000000000008152600401610aa9906119b6565b60405180910390fd5b6001600260006101000a81548160ff0219169083151502179055506000600360003373ffffffffffffffffffffffffffffffffffffffff1673ffffffffffffffffffffffffffffffffffffffff1681526020019081526020016000208054905090506001811115610c9757600360003373ffffffffffffffffffffffffffffffffffffffff1673ffffffffffffffffffffffffffffffffffffffff168152602001908152602001600020600182610b699190611b7b565b81548110610ba0577f4e487b7100000000000000000000000000000000000000000000000000000000600052603260045260246000fd5b9060005260206000209060030201600360003373ffffffffffffffffffffffffffffffffffffffff1673ffffffffffffffffffffffffffffffffffffffff1681526020019081526020016000208481548110610c25577f4e487b7100000000000000000000000000000000000000000000000000000000600052603260045260246000fd5b90600052602060002090600302016000820181600001908054610c4790611c39565b610c5292919061125c565b506001820181600101908054610c6790611c39565b610c7292919061125c565b506002820181600201908054610c8790611c39565b610c9292919061125c565b509050505b600360003373ffffffffffffffffffffffffffffffffffffffff1673ffffffffffffffffffffffffffffffffffffffff168152602001908152602001600020805480610d0c577f4e487b7100000000000000000000000000000000000000000000000000000000600052603160045260246000fd5b600190038181906000526020600020906003020160008082016000610d3191906112e9565b600182016000610d4191906112e9565b600282016000610d5191906112e9565b505090553373ffffffffffffffffffffffffffffffffffffffff167fc9136657b3a49b964bfc5c2a296352dadb93eb43d997f910bfeda105bd5a640560405160405180910390a260019150506000600260006101000a81548160ff021916908315150217905550919050565b600080600360003373ffffffffffffffffffffffffffffffffffffffff1673ffffffffffffffffffffffffffffffffffffffff1681526020019081526020016000208054905011610e43576040517f08c379a0000000000000000000000000000000000000000000000000000000008152600401610e3a90611996565b60405180910390fd5b600260009054906101000a900460ff1615610e93576040517f08c379a0000000000000000000000000000000000000000000000000000000008152600401610e8a906119b6565b60405180910390fd5b6001600260006101000a81548160ff021916908315150217905550604051806060016040528085815260200184815260200183815250600360003373ffffffffffffffffffffffffffffffffffffffff1673ffffffffffffffffffffffffffffffffffffffff1681526020019081526020016000208681548110610f40577f4e487b7100000000000000000000000000000000000000000000000000000000600052603260045260246000fd5b90600052602060002090600302016000820151816000019080519060200190610f6a9291906111d6565b506020820151816001019080519060200190610f879291906111d6565b506040820151816002019080519060200190610fa49291906111d6565b509050503373ffffffffffffffffffffffffffffffffffffffff167f59d5e5502067ddbcd17d342059dce1fd469d88df519507513e7b392a068a936160405160405180910390a2600190506000600260006101000a81548160ff021916908315150217905550949350505050565b61101a61110a565b73ffffffffffffffffffffffffffffffffffffffff166110386107ea565b73ffffffffffffffffffffffffffffffffffffffff161461108e576040517f08c379a0000000000000000000000000000000000000000000000000000000008152600401611085906119d6565b60405180910390fd5b600073ffffffffffffffffffffffffffffffffffffffff168173ffffffffffffffffffffffffffffffffffffffff1614156110fe576040517f08c379a00000000000000000000000000000000000000000000000000000000081526004016110f590611976565b60405180910390fd5b61110781611112565b50565b600033905090565b60008060009054906101000a900473ffffffffffffffffffffffffffffffffffffffff169050816000806101000a81548173ffffffffffffffffffffffffffffffffffffffff021916908373ffffffffffffffffffffffffffffffffffffffff1602179055508173ffffffffffffffffffffffffffffffffffffffff168173ffffffffffffffffffffffffffffffffffffffff167f8be0079c531659141344cd1fd0a4f28419497f9722a3daafe3b4186f6b6457e060405160405180910390a35050565b8280546111e290611c39565b90600052602060002090601f016020900481019282611204576000855561124b565b82601f1061121d57805160ff191683800117855561124b565b8280016001018555821561124b579182015b8281111561124a57825182559160200191906001019061122f565b5b5090506112589190611329565b5090565b82805461126890611c39565b90600052602060002090601f01602090048101928261128a57600085556112d8565b82601f1061129b57805485556112d8565b828001600101855582156112d857600052602060002091601f016020900482015b828111156112d75782548255916001019190600101906112bc565b5b5090506112e59190611329565b5090565b5080546112f590611c39565b6000825580601f106113075750611326565b601f0160209004906000526020600020908101906113259190611329565b5b50565b5b8082111561134257600081600090555060010161132a565b5090565b600061135961135484611a84565b611a53565b90508281526020810184848401111561137157600080fd5b61137c848285611bf7565b509392505050565b60008135905061139381611d09565b92915050565b600082601f8301126113aa57600080fd5b81356113ba848260208601611346565b91505092915050565b6000813590506113d281611d20565b92915050565b6000602082840312156113ea57600080fd5b60006113f884828501611384565b91505092915050565b60008060006060848603121561141657600080fd5b600084013567ffffffffffffffff81111561143057600080fd5b61143c86828701611399565b935050602084013567ffffffffffffffff81111561145957600080fd5b61146586828701611399565b925050604084013567ffffffffffffffff81111561148257600080fd5b61148e86828701611399565b9150509250925092565b6000602082840312156114aa57600080fd5b60006114b8848285016113c3565b91505092915050565b600080600080608085870312156114d757600080fd5b60006114e5878288016113c3565b945050602085013567ffffffffffffffff81111561150257600080fd5b61150e87828801611399565b935050604085013567ffffffffffffffff81111561152b57600080fd5b61153787828801611399565b925050606085013567ffffffffffffffff81111561155457600080fd5b61156087828801611399565b91505092959194509250565b6000611578838361183e565b905092915050565b61158981611baf565b82525050565b600061159a82611ac4565b6115a48185611ae7565b9350836020820285016115b685611ab4565b8060005b858110156115f257848403895281516115d3858261156c565b94506115de83611ada565b925060208a019950506001810190506115ba565b50829750879550505050505092915050565b61160d81611bc1565b82525050565b600061161e82611acf565b6116288185611b03565b9350611638818560208601611c06565b61164181611cf8565b840191505092915050565b6000611659602683611b14565b91507f4f776e61626c653a206e6577206f776e657220697320746865207a65726f206160008301527f64647265737300000000000000000000000000000000000000000000000000006020830152604082019050919050565b60006116bf602383611b14565b91507f546865726520617265206e6f2070617373776f72647320746f2072657472696560008301527f76652100000000000000000000000000000000000000000000000000000000006020830152604082019050919050565b6000611725602083611af8565b91507f5769746864726177616c2066726f6d2050617373776f7264204d616e616765726000830152602082019050919050565b6000611765602e83611b14565b91507f5468652070726576696f75732072657175657374206973207374696c6c20626560008301527f696e672070726f636573736564210000000000000000000000000000000000006020830152604082019050919050565b60006117cb602083611b14565b91507f4f776e61626c653a2063616c6c6572206973206e6f7420746865206f776e65726000830152602082019050919050565b600061180b601583611b14565b91507f496e73756666696369656e742062616c616e63652100000000000000000000006000830152602082019050919050565b6000606083016000830151848203600086015261185b8282611613565b915050602083015184820360208601526118758282611613565b9150506040830151848203604086015261188f8282611613565b9150508091505092915050565b600060608301600083015184820360008601526118b98282611613565b915050602083015184820360208601526118d38282611613565b915050604083015184820360408601526118ed8282611613565b9150508091505092915050565b61190381611bed565b82525050565b600061191482611718565b9150819050919050565b60006020820190506119336000830184611580565b92915050565b60006020820190508181036000830152611953818461158f565b905092915050565b60006020820190506119706000830184611604565b92915050565b6000602082019050818103600083015261198f8161164c565b9050919050565b600060208201905081810360008301526119af816116b2565b9050919050565b600060208201905081810360008301526119cf81611758565b9050919050565b600060208201905081810360008301526119ef816117be565b9050919050565b60006020820190508181036000830152611a0f816117fe565b9050919050565b60006020820190508181036000830152611a30818461189c565b905092915050565b6000602082019050611a4d60008301846118fa565b92915050565b6000604051905081810181811067ffffffffffffffff82111715611a7a57611a79611cc9565b5b8060405250919050565b600067ffffffffffffffff821115611a9f57611a9e611cc9565b5b601f19601f8301169050602081019050919050565b6000819050602082019050919050565b600081519050919050565b600081519050919050565b6000602082019050919050565b600082825260208201905092915050565b600081905092915050565b600082825260208201905092915050565b600082825260208201905092915050565b6000611b3082611bed565b9150611b3b83611bed565b9250827fffffffffffffffffffffffffffffffffffffffffffffffffffffffffffffffff03821115611b7057611b6f611c6b565b5b828201905092915050565b6000611b8682611bed565b9150611b9183611bed565b925082821015611ba457611ba3611c6b565b5b828203905092915050565b6000611bba82611bcd565b9050919050565b60008115159050919050565b600073ffffffffffffffffffffffffffffffffffffffff82169050919050565b6000819050919050565b82818337600083830152505050565b60005b83811015611c24578082015181840152602081019050611c09565b83811115611c33576000848401525b50505050565b60006002820490506001821680611c5157607f821691505b60208210811415611c6557611c64611c9a565b5b50919050565b7f4e487b7100000000000000000000000000000000000000000000000000000000600052601160045260246000fd5b7f4e487b7100000000000000000000000000000000000000000000000000000000600052602260045260246000fd5b7f4e487b7100000000000000000000000000000000000000000000000000000000600052604160045260246000fd5b6000601f19601f8301169050919050565b611d1281611baf565b8114611d1d57600080fd5b50565b611d2981611bed565b8114611d3457600080fd5b5056fea2646970667358221220c533e4baaefb6fc7eb737359be1b1020b3cb8c587d0568ec7e7c8fcbbb74f01e64736f6c63430008000033",
  "immutableReferences": {},
  "source": "// SPDX-License-Identifier: MIT\npragma solidity 0.8.0;\n\nimport \"@openzeppelin/contracts/access/Ownable.sol\";\n\n/// @title A password manager\n/// @author SHHS\n/// @notice You can use this contract for only the most basic simulation\n/// @dev All function calls are currently implemented without side effects\n/// @dev Inherits OpenZeppelin's Ownable module\ncontract PasswordManager is Ownable{\n\n    //fallback function\n    /// @notice Receive Eth\n    /// @dev Receive Eth if data is empty\n    fallback() payable external {\n    balance += msg.value;\n    }\n\n    //receive function \n    /// @notice Receive Eth\n    /// @dev Receive Eth if data is not empty\n    receive() payable external {\n    balance += msg.value;\n    }\n\n    //TODO Comments - Done: Added Natspec Format comments.\n\n    //TODO Use at least two design patterns from the \"Smart Contracts\" section\n\n    //TODO Protect against two attack vectors from the \"Smart Contracts\" section with its the SWC number\n\n    //TODO Inherits from at least one library or interface - Done: Inherits from Openzeppelin's Ownable\n\n    //TODO Can be easily compiled, migrated and tested\n    //TODO Have at least five unit tests for your smart contract(s) that pass. \n    //In the code, include a sentence or two explaining what the tests are covering their expected behavior.\n\n    /* Events */\n    /// @notice Event emitted when a password is saved\n    /// @param sender The address of the msg.sender who saved the password\n    /// @param pw The password that was saved\n    event PasswordSaved(address indexed sender, Password pw);\n\n    /// @notice Event emitted when a password is deleted\n    /// @param sender The address of the msg.sender who deleted the password\n    event PasswordDeleted(address indexed sender);\n\n    /// @notice Event emitted when a password is updated\n    /// @param sender The address of the msg.sender who updated the password\n    event PasswordUpdated(address indexed sender);\n\n    // address public owner;\n\n    //contract ballance\n    /// @notice The balance of Eth in the contract\n    /// @return The balance of Eth in the contract (when the automatic getter function is called)\n    uint public balance;\n\n    /// @notice Indicator of whether some functions did not complete\n    /// @dev Used to prevent re-entrancy attacks\n    bool public busy = false;\n\n    //Create struct for passwords\n    struct Password {\n        string domain;\n        string username;\n        string password;\n    }\n\n    //Have mapping for storing passwords\n    mapping(address => Password[]) private passwords;\n\n\n    // constructor() {\n    //     owner = msg.sender;\n    // }\n\n    /* Modifiers*/\n    modifier hasAPassword {\n        require(passwords[msg.sender].length > 0, \"There are no passwords to retrieve!\");\n        _;\n    }\n\n    /// @notice Check whether some functions did not complete\n    /// @dev Used to prevent re-entrancy attacks    \n    modifier cannotBeBusy {\n        require(!busy, \"The previous request is still being processed!\");\n        busy = true;\n        _;\n        busy = false;\n    }\n    \n    //Removed this modifier after added OpenZeppelin\n    // modifier onlyOwner {\n    //     require(msg.sender == owner, \"Only the owner can access this function!\");\n    //     _;\n    // }\n\n    /// @notice Retrieve array of passwords (Password structs) saved for address that called the function (msg.sender)\n    /// @dev The msg.sender address must have a Password struct saved in the passwords mapping. Otherwise, the hasAPassword modifier throws an error.\n    /// @return Array of Password structs saved for address that called the function (msg.sender)\n    function getPasswordList() public view hasAPassword returns (Password[] memory){ //not sure yet whether to use the Password struct or to break it down into its components as arguments \n\n        //return password list\n        return passwords[msg.sender];\n    }\n\n    /// @notice Save new password to array of Password structs saved for address that called the function (msg.sender)\n    /// @dev Function is payable\n    /// @dev cannotBeBusy modifier checks whether some functions did not complete; used to prevent re-entrancy attacks\n    /// @param _domain The domain of the Password struct to be saved\n    /// @param _username The username of the Password struct to be saved\n    /// @param _password The password of the Password struct to be saved\n    /// @return True once the save operation is complete\n    function saveNewPassword(string memory _domain, string memory _username, string memory _password) public payable cannotBeBusy returns (bool){\n\n        //- Prepare passord\n        Password memory encryptedPassword = Password({domain: _domain, username: _username, password: _password});\n\n        //add to passwords mapping\n        passwords[msg.sender].push(encryptedPassword);\n\n        emit PasswordSaved(msg.sender, encryptedPassword);\n\n        //return true\n        return true;\n    }\n\n    /// @notice Update password already saved in array of Password structs\n    /// @dev The msg.sender address must have a Password struct saved in the passwords mapping. Otherwise, the hasAPassword modifier throws an error.\n    /// @dev cannotBeBusy modifier checks whether some functions did not complete; used to prevent re-entrancy attacks\n    /// @param _index The index of the Password struct to be updated\n    /// @param _updatedDomain The domain of the Password struct to be updated\n    /// @param _updatedUsername The username of the Password struct to be updated\n    /// @param _updatedPassword The password of the Password struct to be updated\n    /// @return True once the update operation is complete\n    function updatePassword(uint _index, string memory _updatedDomain, string memory _updatedUsername, string memory _updatedPassword) public hasAPassword cannotBeBusy returns (bool){ \n        //- ?Check if it exists in mapping (may be done at browser level)\n        // require(passwords[msg.sender], \"You do not have a password stored.\");\n\n        passwords[msg.sender][_index] = Password({domain: _updatedDomain, username: _updatedUsername, password: _updatedPassword});\n\n        emit PasswordUpdated(msg.sender);\n        \n        //return true\n        return true;\n    }\n\n    /// @notice Delete password already saved in array of Password structs\n    /// @dev The msg.sender address must have a Password struct saved in the passwords mapping. Otherwise, the hasAPassword modifier throws an error.\n    /// @dev cannotBeBusy modifier checks whether some functions did not complete; used to prevent re-entrancy attacks\n    /// @param _index The index of the Password struct to be deleted\n    /// @return True once the delete operation is complete\n    function deletePassword(uint _index) public hasAPassword cannotBeBusy returns (bool){ //not sure yet whether to use the Password struct or to break it down into its components as arguments \n\n        //- ?Check if it exists in mapping (may be done at browser level)\n        // require(passwords[msg.sender], \"You do not have a password stored.\");\n        \n        uint l = passwords[msg.sender].length;\n        \n        if (l > 1) {\n            passwords[msg.sender][_index] = passwords[msg.sender][l - 1];\n        }\n        \n        passwords[msg.sender].pop();\n       \n        emit PasswordDeleted(msg.sender);\n        \n        //return true\n        return true;\n    }\n\n\n\n    //function to withdraw funds from contract - onlyOwner\n    /// @notice Withdraw Eth from contract\n    /// @dev Only the owner of the contract can withdraw\n    /// @dev cannotBeBusy modifier checks whether some functions did not complete; used to prevent re-entrancy attacks\n    /// @dev Amount to withdraw cannot be more than balance in the contract\n    /// @param _amountToWithdraw Amount of Eth (Wei) to be withdrawn from the contract\n    /// @return True if the withdraw is successful\n    function withdraw(uint _amountToWithdraw) public payable onlyOwner cannotBeBusy returns (bool) {\n        require(_amountToWithdraw <= balance, \"Insufficient balance!\");\n        balance -= _amountToWithdraw;\n        (bool success, ) = msg.sender.call{value: _amountToWithdraw}(\"Withdrawal from Password Manager\");\n        require(success);\n        \n        return true;\n    }\n    \n    \n}",
  "sourcePath": "/Users/Saad/Documents/Personal/Personal_Growth/Bootcamp/Final Project/blockchain-developer-bootcamp-final-project/contracts/PasswordManager.sol",
  "compiler": {
    "name": "solc",
    "version": "0.8.0+commit.c7dfd78e.Emscripten.clang"
  },
  "schemaVersion": "3.4.3",
  "updatedAt": "2021-10-24T04:03:24.973Z",
  "networkType": "ethereum",
  "devdoc": {
    "author": "SHHS",
    "details": "All function calls are currently implemented without side effectsInherits OpenZeppelin's Ownable module",
    "events": {
      "PasswordDeleted(address)": {
        "params": {
          "sender": "The address of the msg.sender who deleted the password"
        }
      },
      "PasswordSaved(address,(string,string,string))": {
        "params": {
          "pw": "The password that was saved",
          "sender": "The address of the msg.sender who saved the password"
        }
      },
      "PasswordUpdated(address)": {
        "params": {
          "sender": "The address of the msg.sender who updated the password"
        }
      }
    },
    "kind": "dev",
    "methods": {
      "deletePassword(uint256)": {
        "details": "The msg.sender address must have a Password struct saved in the passwords mapping. Otherwise, the hasAPassword modifier throws an error.cannotBeBusy modifier checks whether some functions did not complete; used to prevent re-entrancy attacks",
        "params": {
          "_index": "The index of the Password struct to be deleted"
        },
        "returns": {
          "_0": "True once the delete operation is complete"
        }
      },
      "getPasswordList()": {
        "details": "The msg.sender address must have a Password struct saved in the passwords mapping. Otherwise, the hasAPassword modifier throws an error.",
        "returns": {
          "_0": "Array of Password structs saved for address that called the function (msg.sender)"
        }
      },
      "owner()": {
        "details": "Returns the address of the current owner."
      },
      "renounceOwnership()": {
        "details": "Leaves the contract without owner. It will not be possible to call `onlyOwner` functions anymore. Can only be called by the current owner. NOTE: Renouncing ownership will leave the contract without an owner, thereby removing any functionality that is only available to the owner."
      },
      "saveNewPassword(string,string,string)": {
        "details": "Function is payablecannotBeBusy modifier checks whether some functions did not complete; used to prevent re-entrancy attacks",
        "params": {
          "_domain": "The domain of the Password struct to be saved",
          "_password": "The password of the Password struct to be saved",
          "_username": "The username of the Password struct to be saved"
        },
        "returns": {
          "_0": "True once the save operation is complete"
        }
      },
      "transferOwnership(address)": {
        "details": "Transfers ownership of the contract to a new account (`newOwner`). Can only be called by the current owner."
      },
      "updatePassword(uint256,string,string,string)": {
        "details": "The msg.sender address must have a Password struct saved in the passwords mapping. Otherwise, the hasAPassword modifier throws an error.cannotBeBusy modifier checks whether some functions did not complete; used to prevent re-entrancy attacks",
        "params": {
          "_index": "The index of the Password struct to be updated",
          "_updatedDomain": "The domain of the Password struct to be updated",
          "_updatedPassword": "The password of the Password struct to be updated",
          "_updatedUsername": "The username of the Password struct to be updated"
        },
        "returns": {
          "_0": "True once the update operation is complete"
        }
      },
      "withdraw(uint256)": {
        "details": "Only the owner of the contract can withdrawcannotBeBusy modifier checks whether some functions did not complete; used to prevent re-entrancy attacksAmount to withdraw cannot be more than balance in the contract",
        "params": {
          "_amountToWithdraw": "Amount of Eth (Wei) to be withdrawn from the contract"
        },
        "returns": {
          "_0": "True if the withdraw is successful"
        }
      }
    },
    "stateVariables": {
      "balance": {
        "return": "The balance of Eth in the contract (when the automatic getter function is called)"
      },
      "busy": {
        "details": "Used to prevent re-entrancy attacks"
      }
    },
    "title": "A password manager",
    "version": 1
  },
  "userdoc": {
    "events": {
      "PasswordDeleted(address)": {
        "notice": "Event emitted when a password is deleted"
      },
      "PasswordSaved(address,(string,string,string))": {
        "notice": "Event emitted when a password is saved"
      },
      "PasswordUpdated(address)": {
        "notice": "Event emitted when a password is updated"
      }
    },
    "kind": "user",
    "methods": {
      "balance()": {
        "notice": "The balance of Eth in the contract"
      },
      "busy()": {
        "notice": "Indicator of whether some functions did not complete"
      },
      "deletePassword(uint256)": {
        "notice": "Delete password already saved in array of Password structs"
      },
      "getPasswordList()": {
        "notice": "Retrieve array of passwords (Password structs) saved for address that called the function (msg.sender)"
      },
      "saveNewPassword(string,string,string)": {
        "notice": "Save new password to array of Password structs saved for address that called the function (msg.sender)"
      },
      "updatePassword(uint256,string,string,string)": {
        "notice": "Update password already saved in array of Password structs"
      },
      "withdraw(uint256)": {
        "notice": "Withdraw Eth from contract"
      }
    },
    "notice": "You can use this contract for only the most basic simulation",
    "version": 1
  }
}