{
  "contractName": "PasswordManager",
  "abi": [
    {
      "anonymous": false,
      "inputs": [
        {
          "indexed": true,
          "internalType": "address",
          "name": "previousOwner",
          "type": "address"
        },
        {
          "indexed": true,
          "internalType": "address",
          "name": "newOwner",
          "type": "address"
        }
      ],
      "name": "OwnershipTransferred",
      "type": "event"
    },
    {
      "anonymous": false,
      "inputs": [
        {
          "indexed": true,
          "internalType": "address",
          "name": "deletedBy",
          "type": "address"
        }
      ],
      "name": "PasswordDeleted",
      "type": "event"
    },
    {
      "anonymous": false,
      "inputs": [
        {
          "indexed": true,
          "internalType": "address",
          "name": "savedBy",
          "type": "address"
        },
        {
          "indexed": false,
          "internalType": "string",
          "name": "password",
          "type": "string"
        }
      ],
      "name": "PasswordSaved",
      "type": "event"
    },
    {
      "anonymous": false,
      "inputs": [
        {
          "indexed": true,
          "internalType": "address",
          "name": "updatedBy",
          "type": "address"
        }
      ],
      "name": "PasswordUpdated",
      "type": "event"
    },
    {
      "stateMutability": "payable",
      "type": "fallback",
      "payable": true
    },
    {
      "inputs": [],
      "name": "balance",
      "outputs": [
        {
          "internalType": "uint256",
          "name": "",
          "type": "uint256"
        }
      ],
      "stateMutability": "view",
      "type": "function",
      "constant": true
    },
    {
      "inputs": [],
      "name": "busy",
      "outputs": [
        {
          "internalType": "bool",
          "name": "",
          "type": "bool"
        }
      ],
      "stateMutability": "view",
      "type": "function",
      "constant": true
    },
    {
      "inputs": [],
      "name": "owner",
      "outputs": [
        {
          "internalType": "address",
          "name": "",
          "type": "address"
        }
      ],
      "stateMutability": "view",
      "type": "function",
      "constant": true
    },
    {
      "inputs": [],
      "name": "renounceOwnership",
      "outputs": [],
      "stateMutability": "nonpayable",
      "type": "function"
    },
    {
      "inputs": [
        {
          "internalType": "address",
          "name": "newOwner",
          "type": "address"
        }
      ],
      "name": "transferOwnership",
      "outputs": [],
      "stateMutability": "nonpayable",
      "type": "function"
    },
    {
      "stateMutability": "payable",
      "type": "receive",
      "payable": true
    },
    {
      "inputs": [],
      "name": "getPasswordList",
      "outputs": [
        {
          "internalType": "string[]",
          "name": "",
          "type": "string[]"
        }
      ],
      "stateMutability": "view",
      "type": "function",
      "constant": true
    },
    {
      "inputs": [
        {
          "internalType": "string",
          "name": "_password",
          "type": "string"
        }
      ],
      "name": "saveNewPassword",
      "outputs": [
        {
          "internalType": "bool",
          "name": "",
          "type": "bool"
        }
      ],
      "stateMutability": "payable",
      "type": "function",
      "payable": true
    },
    {
      "inputs": [
        {
          "internalType": "uint256",
          "name": "_index",
          "type": "uint256"
        },
        {
          "internalType": "string",
          "name": "_updatedPassword",
          "type": "string"
        }
      ],
      "name": "updatePassword",
      "outputs": [
        {
          "internalType": "bool",
          "name": "",
          "type": "bool"
        }
      ],
      "stateMutability": "nonpayable",
      "type": "function"
    },
    {
      "inputs": [
        {
          "internalType": "uint256",
          "name": "_index",
          "type": "uint256"
        }
      ],
      "name": "deletePassword",
      "outputs": [
        {
          "internalType": "bool",
          "name": "",
          "type": "bool"
        }
      ],
      "stateMutability": "nonpayable",
      "type": "function"
    },
    {
      "inputs": [
        {
          "internalType": "uint256",
          "name": "_amountToWithdraw",
          "type": "uint256"
        }
      ],
      "name": "withdraw",
      "outputs": [
        {
          "internalType": "bool",
          "name": "",
          "type": "bool"
        }
      ],
      "stateMutability": "payable",
      "type": "function",
      "payable": true
    }
  ],
  "bytecode": "0x60806040526000600260006101000a81548160ff02191690831515021790555034801561002b57600080fd5b5061004861003d61004d60201b60201c565b61005560201b60201c565b610119565b600033905090565b60008060009054906101000a900473ffffffffffffffffffffffffffffffffffffffff169050816000806101000a81548173ffffffffffffffffffffffffffffffffffffffff021916908373ffffffffffffffffffffffffffffffffffffffff1602179055508173ffffffffffffffffffffffffffffffffffffffff168173ffffffffffffffffffffffffffffffffffffffff167f8be0079c531659141344cd1fd0a4f28419497f9722a3daafe3b4186f6b6457e060405160405180910390a35050565b6119b2806101286000396000f3fe6080604052600436106100955760003560e01c8063816707f111610059578063816707f1146101aa5780638da5cb5b146101da578063b69ef8a814610205578063c3b3863c14610230578063f2fde38b1461026d576100b5565b80632e1a7d4d146100d057806330641b5a146101005780634d88747e1461012b57806361c6811014610168578063715018a614610193576100b5565b366100b55734600160008282546100ac919061176a565b92505081905550005b34600160008282546100c7919061176a565b92505081905550005b6100ea60048036038101906100e591906111b7565b610296565b6040516100f791906115a0565b60405180910390f35b34801561010c57600080fd5b50610115610478565b60405161012291906115a0565b60405180910390f35b34801561013757600080fd5b50610152600480360381019061014d91906111e0565b61048b565b60405161015f91906115a0565b60405180910390f35b34801561017457600080fd5b5061017d61067a565b60405161018a919061157e565b60405180910390f35b34801561019f57600080fd5b506101a8610815565b005b6101c460048036038101906101bf9190611176565b61089d565b6040516101d191906115a0565b60405180910390f35b3480156101e657600080fd5b506101ef6109f5565b6040516101fc9190611563565b60405180910390f35b34801561021157600080fd5b5061021a610a1e565b604051610227919061167d565b60405180910390f35b34801561023c57600080fd5b50610257600480360381019061025291906111b7565b610a24565b60405161026491906115a0565b60405180910390f35b34801561027957600080fd5b50610294600480360381019061028f919061114d565b610d87565b005b60006102a0610e7f565b73ffffffffffffffffffffffffffffffffffffffff166102be6109f5565b73ffffffffffffffffffffffffffffffffffffffff1614610314576040517f08c379a000000000000000000000000000000000000000000000000000000000815260040161030b9061163d565b60405180910390fd5b600260009054906101000a900460ff1615610364576040517f08c379a000000000000000000000000000000000000000000000000000000000815260040161035b9061161d565b60405180910390fd5b6001600260006101000a81548160ff0219169083151502179055506001548211156103c4576040517f08c379a00000000000000000000000000000000000000000000000000000000081526004016103bb9061165d565b60405180910390fd5b81600160008282546103d691906117c0565b9250508190555060003373ffffffffffffffffffffffffffffffffffffffff16836040516104039061154e565b60006040518083038185875af1925050503d8060008114610440576040519150601f19603f3d011682016040523d82523d6000602084013e610445565b606091505b505090508061045357600080fd5b60019150506000600260006101000a81548160ff021916908315150217905550919050565b600260009054906101000a900460ff1681565b600080600360003373ffffffffffffffffffffffffffffffffffffffff1673ffffffffffffffffffffffffffffffffffffffff1681526020019081526020016000208054905011610511576040517f08c379a0000000000000000000000000000000000000000000000000000000008152600401610508906115fd565b60405180910390fd5b600260009054906101000a900460ff1615610561576040517f08c379a00000000000000000000000000000000000000000000000000000000081526004016105589061161d565b60405180910390fd5b6001600260006101000a81548160ff02191690831515021790555081600360003373ffffffffffffffffffffffffffffffffffffffff1673ffffffffffffffffffffffffffffffffffffffff16815260200190815260200160002084815481106105f4577f4e487b7100000000000000000000000000000000000000000000000000000000600052603260045260246000fd5b906000526020600020019080519060200190610611929190610f4b565b503373ffffffffffffffffffffffffffffffffffffffff167f59d5e5502067ddbcd17d342059dce1fd469d88df519507513e7b392a068a936160405160405180910390a2600190506000600260006101000a81548160ff02191690831515021790555092915050565b60606000600360003373ffffffffffffffffffffffffffffffffffffffff1673ffffffffffffffffffffffffffffffffffffffff1681526020019081526020016000208054905011610701576040517f08c379a00000000000000000000000000000000000000000000000000000000081526004016106f8906115fd565b60405180910390fd5b600360003373ffffffffffffffffffffffffffffffffffffffff1673ffffffffffffffffffffffffffffffffffffffff168152602001908152602001600020805480602002602001604051908101604052809291908181526020016000905b8282101561080c57838290600052602060002001805461077f9061187e565b80601f01602080910402602001604051908101604052809291908181526020018280546107ab9061187e565b80156107f85780601f106107cd576101008083540402835291602001916107f8565b820191906000526020600020905b8154815290600101906020018083116107db57829003601f168201915b505050505081526020019060010190610760565b50505050905090565b61081d610e7f565b73ffffffffffffffffffffffffffffffffffffffff1661083b6109f5565b73ffffffffffffffffffffffffffffffffffffffff1614610891576040517f08c379a00000000000000000000000000000000000000000000000000000000081526004016108889061163d565b60405180910390fd5b61089b6000610e87565b565b6000600260009054906101000a900460ff16156108ef576040517f08c379a00000000000000000000000000000000000000000000000000000000081526004016108e69061161d565b60405180910390fd5b6001600260006101000a81548160ff021916908315150217905550600360003373ffffffffffffffffffffffffffffffffffffffff1673ffffffffffffffffffffffffffffffffffffffff16815260200190815260200160002082908060018154018082558091505060019003906000526020600020016000909190919091509080519060200190610982929190610f4b565b503373ffffffffffffffffffffffffffffffffffffffff167f7c69b241c0ad491d41d646a0702d095266a8b052cc9628d037e98b1687baf3fc836040516109c991906115bb565b60405180910390a2600190506000600260006101000a81548160ff021916908315150217905550919050565b60008060009054906101000a900473ffffffffffffffffffffffffffffffffffffffff16905090565b60015481565b600080600360003373ffffffffffffffffffffffffffffffffffffffff1673ffffffffffffffffffffffffffffffffffffffff1681526020019081526020016000208054905011610aaa576040517f08c379a0000000000000000000000000000000000000000000000000000000008152600401610aa1906115fd565b60405180910390fd5b600260009054906101000a900460ff1615610afa576040517f08c379a0000000000000000000000000000000000000000000000000000000008152600401610af19061161d565b60405180910390fd5b6001600260006101000a81548160ff0219169083151502179055506000600360003373ffffffffffffffffffffffffffffffffffffffff1673ffffffffffffffffffffffffffffffffffffffff1681526020019081526020016000208054905090506001811115610c8c57600360003373ffffffffffffffffffffffffffffffffffffffff1673ffffffffffffffffffffffffffffffffffffffff168152602001908152602001600020600182610bb191906117c0565b81548110610be8577f4e487b7100000000000000000000000000000000000000000000000000000000600052603260045260246000fd5b90600052602060002001600360003373ffffffffffffffffffffffffffffffffffffffff1673ffffffffffffffffffffffffffffffffffffffff1681526020019081526020016000208481548110610c69577f4e487b7100000000000000000000000000000000000000000000000000000000600052603260045260246000fd5b90600052602060002001908054610c7f9061187e565b610c8a929190610fd1565b505b600360003373ffffffffffffffffffffffffffffffffffffffff1673ffffffffffffffffffffffffffffffffffffffff168152602001908152602001600020805480610d01577f4e487b7100000000000000000000000000000000000000000000000000000000600052603160045260246000fd5b600190038181906000526020600020016000610d1d919061105e565b90553373ffffffffffffffffffffffffffffffffffffffff167fc9136657b3a49b964bfc5c2a296352dadb93eb43d997f910bfeda105bd5a640560405160405180910390a260019150506000600260006101000a81548160ff021916908315150217905550919050565b610d8f610e7f565b73ffffffffffffffffffffffffffffffffffffffff16610dad6109f5565b73ffffffffffffffffffffffffffffffffffffffff1614610e03576040517f08c379a0000000000000000000000000000000000000000000000000000000008152600401610dfa9061163d565b60405180910390fd5b600073ffffffffffffffffffffffffffffffffffffffff168173ffffffffffffffffffffffffffffffffffffffff161415610e73576040517f08c379a0000000000000000000000000000000000000000000000000000000008152600401610e6a906115dd565b60405180910390fd5b610e7c81610e87565b50565b600033905090565b60008060009054906101000a900473ffffffffffffffffffffffffffffffffffffffff169050816000806101000a81548173ffffffffffffffffffffffffffffffffffffffff021916908373ffffffffffffffffffffffffffffffffffffffff1602179055508173ffffffffffffffffffffffffffffffffffffffff168173ffffffffffffffffffffffffffffffffffffffff167f8be0079c531659141344cd1fd0a4f28419497f9722a3daafe3b4186f6b6457e060405160405180910390a35050565b828054610f579061187e565b90600052602060002090601f016020900481019282610f795760008555610fc0565b82601f10610f9257805160ff1916838001178555610fc0565b82800160010185558215610fc0579182015b82811115610fbf578251825591602001919060010190610fa4565b5b509050610fcd919061109e565b5090565b828054610fdd9061187e565b90600052602060002090601f016020900481019282610fff576000855561104d565b82601f10611010578054855561104d565b8280016001018555821561104d57600052602060002091601f016020900482015b8281111561104c578254825591600101919060010190611031565b5b50905061105a919061109e565b5090565b50805461106a9061187e565b6000825580601f1061107c575061109b565b601f01602090049060005260206000209081019061109a919061109e565b5b50565b5b808211156110b757600081600090555060010161109f565b5090565b60006110ce6110c9846116c9565b611698565b9050828152602081018484840111156110e657600080fd5b6110f184828561183c565b509392505050565b6000813590506111088161194e565b92915050565b600082601f83011261111f57600080fd5b813561112f8482602086016110bb565b91505092915050565b60008135905061114781611965565b92915050565b60006020828403121561115f57600080fd5b600061116d848285016110f9565b91505092915050565b60006020828403121561118857600080fd5b600082013567ffffffffffffffff8111156111a257600080fd5b6111ae8482850161110e565b91505092915050565b6000602082840312156111c957600080fd5b60006111d784828501611138565b91505092915050565b600080604083850312156111f357600080fd5b600061120185828601611138565b925050602083013567ffffffffffffffff81111561121e57600080fd5b61122a8582860161110e565b9150509250929050565b600061124083836112db565b905092915050565b611251816117f4565b82525050565b600061126282611709565b61126c818561172c565b93508360208202850161127e856116f9565b8060005b858110156112ba578484038952815161129b8582611234565b94506112a68361171f565b925060208a01995050600181019050611282565b50829750879550505050505092915050565b6112d581611806565b82525050565b60006112e682611714565b6112f08185611748565b935061130081856020860161184b565b6113098161193d565b840191505092915050565b600061131f82611714565b6113298185611759565b935061133981856020860161184b565b6113428161193d565b840191505092915050565b600061135a602683611759565b91507f4f776e61626c653a206e6577206f776e657220697320746865207a65726f206160008301527f64647265737300000000000000000000000000000000000000000000000000006020830152604082019050919050565b60006113c0602383611759565b91507f546865726520617265206e6f2070617373776f72647320746f2072657472696560008301527f76652100000000000000000000000000000000000000000000000000000000006020830152604082019050919050565b600061142660208361173d565b91507f5769746864726177616c2066726f6d2050617373776f7264204d616e616765726000830152602082019050919050565b6000611466602e83611759565b91507f5468652070726576696f75732072657175657374206973207374696c6c20626560008301527f696e672070726f636573736564210000000000000000000000000000000000006020830152604082019050919050565b60006114cc602083611759565b91507f4f776e61626c653a2063616c6c6572206973206e6f7420746865206f776e65726000830152602082019050919050565b600061150c601583611759565b91507f496e73756666696369656e742062616c616e63652100000000000000000000006000830152602082019050919050565b61154881611832565b82525050565b600061155982611419565b9150819050919050565b60006020820190506115786000830184611248565b92915050565b600060208201905081810360008301526115988184611257565b905092915050565b60006020820190506115b560008301846112cc565b92915050565b600060208201905081810360008301526115d58184611314565b905092915050565b600060208201905081810360008301526115f68161134d565b9050919050565b60006020820190508181036000830152611616816113b3565b9050919050565b6000602082019050818103600083015261163681611459565b9050919050565b60006020820190508181036000830152611656816114bf565b9050919050565b60006020820190508181036000830152611676816114ff565b9050919050565b6000602082019050611692600083018461153f565b92915050565b6000604051905081810181811067ffffffffffffffff821117156116bf576116be61190e565b5b8060405250919050565b600067ffffffffffffffff8211156116e4576116e361190e565b5b601f19601f8301169050602081019050919050565b6000819050602082019050919050565b600081519050919050565b600081519050919050565b6000602082019050919050565b600082825260208201905092915050565b600081905092915050565b600082825260208201905092915050565b600082825260208201905092915050565b600061177582611832565b915061178083611832565b9250827fffffffffffffffffffffffffffffffffffffffffffffffffffffffffffffffff038211156117b5576117b46118b0565b5b828201905092915050565b60006117cb82611832565b91506117d683611832565b9250828210156117e9576117e86118b0565b5b828203905092915050565b60006117ff82611812565b9050919050565b60008115159050919050565b600073ffffffffffffffffffffffffffffffffffffffff82169050919050565b6000819050919050565b82818337600083830152505050565b60005b8381101561186957808201518184015260208101905061184e565b83811115611878576000848401525b50505050565b6000600282049050600182168061189657607f821691505b602082108114156118aa576118a96118df565b5b50919050565b7f4e487b7100000000000000000000000000000000000000000000000000000000600052601160045260246000fd5b7f4e487b7100000000000000000000000000000000000000000000000000000000600052602260045260246000fd5b7f4e487b7100000000000000000000000000000000000000000000000000000000600052604160045260246000fd5b6000601f19601f8301169050919050565b611957816117f4565b811461196257600080fd5b50565b61196e81611832565b811461197957600080fd5b5056fea2646970667358221220fe9518142d0f563c3ae29424f2ad74e51441250668ef9a21c57768e27c42ec4564736f6c63430008000033",
  "immutableReferences": {},
  "source": "// SPDX-License-Identifier: MIT\npragma solidity 0.8.0;\n\nimport \"@openzeppelin/contracts/access/Ownable.sol\";\n\n/// @title A password manager\n/// @author SHHS\n/// @notice You can use this contract for only the most basic simulation\n/// @dev All function calls are currently implemented without side effects\n/// @dev Inherits OpenZeppelin's Ownable module\ncontract PasswordManager is Ownable{\n\n    //fallback function\n    /// @notice Receive Eth\n    /// @dev Receive Eth if data is empty\n    fallback() payable external {\n    balance += msg.value;\n    }\n\n    //receive function \n    /// @notice Receive Eth\n    /// @dev Receive Eth if data is not empty\n    receive() payable external {\n    balance += msg.value;\n    }\n\n    //TODO Comments - Done: Added Natspec Format comments.\n\n    //TODO Use at least two design patterns from the \"Smart Contracts\" section - Done: Added to design_pattern_decisions.md\n\n    //TODO Protect against two attack vectors from the \"Smart Contracts\" section with its the SWC number - Done: Added to avoiding_common_attacks.md\n\n    //TODO Inherits from at least one library or interface - Done: Inherits from Openzeppelin's Ownable\n\n    //TODO Can be easily compiled, migrated and tested\n    //TODO Have at least five unit tests for your smart contract(s) that pass. - Done: Have six tests that pass.\n    //In the code, include a sentence or two explaining what the tests are covering their expected behavior. - Done: added comments to the tests.\n\n    /* Events */\n    /// @notice Event emitted when a password is saved\n    /// @param savedBy The address of the msg.sender who saved the password\n    /// @param password The password that was saved\n    event PasswordSaved(address indexed savedBy, string password);\n\n    /// @notice Event emitted when a password is deleted\n    /// @param deletedBy The address of the msg.sender who deleted the password\n    event PasswordDeleted(address indexed deletedBy);\n\n    /// @notice Event emitted when a password is updated\n    /// @param updatedBy The address of the msg.sender who updated the password\n    event PasswordUpdated(address indexed updatedBy);\n\n    // address public owner;\n\n    //contract ballance\n    /// @notice The balance of Eth in the contract\n    /// @return The balance of Eth in the contract (when the automatic getter function is called)\n    uint public balance;\n\n    /// @notice Indicator of whether some functions did not complete\n    /// @dev Used to prevent re-entrancy attacks\n    bool public busy = false;\n\n\n    //Have mapping for storing passwords\n    mapping(address => string[]) private passwords;\n\n\n    /* Modifiers*/\n    modifier hasAPassword {\n        require(passwords[msg.sender].length > 0, \"There are no passwords to retrieve!\");\n        _;\n    }\n\n    /// @notice Check whether some functions did not complete\n    /// @dev Used to prevent re-entrancy attacks    \n    modifier cannotBeBusy {\n        require(!busy, \"The previous request is still being processed!\");\n        busy = true;\n        _;\n        busy = false;\n    }\n    \n    //Removed this modifier after added OpenZeppelin\n    // modifier onlyOwner {\n    //     require(msg.sender == owner, \"Only the owner can access this function!\");\n    //     _;\n    // }\n\n    /// @notice Retrieve array of passwords saved for address that called the function (msg.sender)\n    /// @dev The msg.sender address must have password(s) saved in the passwords mapping. Otherwise, the hasAPassword modifier throws an error.\n    /// @return Array of passwords saved for address that called the function (msg.sender)\n    function getPasswordList() public view hasAPassword returns (string[] memory){\n\n        //return password list\n        return passwords[msg.sender];\n    }\n\n    /// @notice Save new password to array of passwords saved for address that called the function (msg.sender)\n    /// @dev Function is payable\n    /// @dev cannotBeBusy modifier checks whether some functions did not complete; used to prevent re-entrancy attacks\n    /// @param _password The new encrypted password to be saved\n    /// @return True once the save operation is complete\n    function saveNewPassword(string memory _password) public payable cannotBeBusy returns (bool){\n\n        //add to passwords mapping\n        passwords[msg.sender].push(_password);\n\n        emit PasswordSaved(msg.sender, _password);\n\n        //return true\n        return true;\n    }\n\n    /// @notice Update password already saved in array of Password structs\n    /// @dev The msg.sender address must have passwords saved in the passwords mapping. Otherwise, the hasAPassword modifier throws an error.\n    /// @dev cannotBeBusy modifier checks whether some functions did not complete; used to prevent re-entrancy attacks\n    /// @param _index The index of the password to be updated\n    /// @param _updatedPassword The encrypted password to be updated\n    /// @return True once the update operation is complete\n    function updatePassword(uint _index, string memory _updatedPassword) public hasAPassword cannotBeBusy returns (bool){ \n\n        //update password\n        passwords[msg.sender][_index] = _updatedPassword;\n\n        emit PasswordUpdated(msg.sender);\n        \n        //return true\n        return true;\n    }\n\n    /// @notice Delete password already saved in array of passwords\n    /// @dev The msg.sender address must have passwords saved in the passwords mapping. Otherwise, the hasAPassword modifier throws an error.\n    /// @dev cannotBeBusy modifier checks whether some functions did not complete; used to prevent re-entrancy attacks\n    /// @param _index The index of the Password struct to be deleted\n    /// @return True once the delete operation is complete\n    function deletePassword(uint _index) public hasAPassword cannotBeBusy returns (bool){ //not sure yet whether to use the Password struct or to break it down into its components as arguments \n\n        \n        uint l = passwords[msg.sender].length;\n        \n        if (l > 1) {\n            passwords[msg.sender][_index] = passwords[msg.sender][l - 1];\n        }\n        \n        passwords[msg.sender].pop();\n       \n        emit PasswordDeleted(msg.sender);\n        \n        //return true\n        return true;\n    }\n\n\n\n    //function to withdraw funds from contract - onlyOwner\n    /// @notice Withdraw Eth from contract\n    /// @dev Only the owner of the contract can withdraw\n    /// @dev cannotBeBusy modifier checks whether some functions did not complete; used to prevent re-entrancy attacks\n    /// @dev Amount to withdraw cannot be more than balance in the contract\n    /// @param _amountToWithdraw Amount of Eth (Wei) to be withdrawn from the contract\n    /// @return True if the withdraw is successful\n    function withdraw(uint _amountToWithdraw) public payable onlyOwner cannotBeBusy returns (bool) {\n        require(_amountToWithdraw <= balance, \"Insufficient balance!\");\n        balance -= _amountToWithdraw;\n        (bool success, ) = msg.sender.call{value: _amountToWithdraw}(\"Withdrawal from Password Manager\");\n        require(success);\n        \n        return true;\n    }\n    \n    \n}",
  "sourcePath": "/Users/Saad/Documents/Personal/Personal_Growth/Bootcamp/Final Project/blockchain-developer-bootcamp-final-project/contracts/PasswordManager.sol",
  "compiler": {
    "name": "solc",
    "version": "0.8.0+commit.c7dfd78e.Emscripten.clang"
  },
  "schemaVersion": "3.4.3",
  "updatedAt": "2021-10-30T05:13:08.063Z",
  "networkType": "ethereum",
  "devdoc": {
    "author": "SHHS",
    "details": "All function calls are currently implemented without side effectsInherits OpenZeppelin's Ownable module",
    "events": {
      "PasswordDeleted(address)": {
        "params": {
          "deletedBy": "The address of the msg.sender who deleted the password"
        }
      },
      "PasswordSaved(address,string)": {
        "params": {
          "password": "The password that was saved",
          "savedBy": "The address of the msg.sender who saved the password"
        }
      },
      "PasswordUpdated(address)": {
        "params": {
          "updatedBy": "The address of the msg.sender who updated the password"
        }
      }
    },
    "kind": "dev",
    "methods": {
      "deletePassword(uint256)": {
        "details": "The msg.sender address must have passwords saved in the passwords mapping. Otherwise, the hasAPassword modifier throws an error.cannotBeBusy modifier checks whether some functions did not complete; used to prevent re-entrancy attacks",
        "params": {
          "_index": "The index of the Password struct to be deleted"
        },
        "returns": {
          "_0": "True once the delete operation is complete"
        }
      },
      "getPasswordList()": {
        "details": "The msg.sender address must have password(s) saved in the passwords mapping. Otherwise, the hasAPassword modifier throws an error.",
        "returns": {
          "_0": "Array of passwords saved for address that called the function (msg.sender)"
        }
      },
      "owner()": {
        "details": "Returns the address of the current owner."
      },
      "renounceOwnership()": {
        "details": "Leaves the contract without owner. It will not be possible to call `onlyOwner` functions anymore. Can only be called by the current owner. NOTE: Renouncing ownership will leave the contract without an owner, thereby removing any functionality that is only available to the owner."
      },
      "saveNewPassword(string)": {
        "details": "Function is payablecannotBeBusy modifier checks whether some functions did not complete; used to prevent re-entrancy attacks",
        "params": {
          "_password": "The new encrypted password to be saved"
        },
        "returns": {
          "_0": "True once the save operation is complete"
        }
      },
      "transferOwnership(address)": {
        "details": "Transfers ownership of the contract to a new account (`newOwner`). Can only be called by the current owner."
      },
      "updatePassword(uint256,string)": {
        "details": "The msg.sender address must have passwords saved in the passwords mapping. Otherwise, the hasAPassword modifier throws an error.cannotBeBusy modifier checks whether some functions did not complete; used to prevent re-entrancy attacks",
        "params": {
          "_index": "The index of the password to be updated",
          "_updatedPassword": "The encrypted password to be updated"
        },
        "returns": {
          "_0": "True once the update operation is complete"
        }
      },
      "withdraw(uint256)": {
        "details": "Only the owner of the contract can withdrawcannotBeBusy modifier checks whether some functions did not complete; used to prevent re-entrancy attacksAmount to withdraw cannot be more than balance in the contract",
        "params": {
          "_amountToWithdraw": "Amount of Eth (Wei) to be withdrawn from the contract"
        },
        "returns": {
          "_0": "True if the withdraw is successful"
        }
      }
    },
    "stateVariables": {
      "balance": {
        "return": "The balance of Eth in the contract (when the automatic getter function is called)"
      },
      "busy": {
        "details": "Used to prevent re-entrancy attacks"
      }
    },
    "title": "A password manager",
    "version": 1
  },
  "userdoc": {
    "events": {
      "PasswordDeleted(address)": {
        "notice": "Event emitted when a password is deleted"
      },
      "PasswordSaved(address,string)": {
        "notice": "Event emitted when a password is saved"
      },
      "PasswordUpdated(address)": {
        "notice": "Event emitted when a password is updated"
      }
    },
    "kind": "user",
    "methods": {
      "balance()": {
        "notice": "The balance of Eth in the contract"
      },
      "busy()": {
        "notice": "Indicator of whether some functions did not complete"
      },
      "deletePassword(uint256)": {
        "notice": "Delete password already saved in array of passwords"
      },
      "getPasswordList()": {
        "notice": "Retrieve array of passwords saved for address that called the function (msg.sender)"
      },
      "saveNewPassword(string)": {
        "notice": "Save new password to array of passwords saved for address that called the function (msg.sender)"
      },
      "updatePassword(uint256,string)": {
        "notice": "Update password already saved in array of Password structs"
      },
      "withdraw(uint256)": {
        "notice": "Withdraw Eth from contract"
      }
    },
    "notice": "You can use this contract for only the most basic simulation",
    "version": 1
  }
}