{
  "contractName": "PasswordManager",
  "abi": [
    {
      "inputs": [],
      "stateMutability": "nonpayable",
      "type": "constructor"
    },
    {
      "anonymous": false,
      "inputs": [
        {
          "indexed": true,
          "internalType": "address",
          "name": "sender",
          "type": "address"
        }
      ],
      "name": "PasswordDeleted",
      "type": "event"
    },
    {
      "anonymous": false,
      "inputs": [
        {
          "indexed": true,
          "internalType": "address",
          "name": "sender",
          "type": "address"
        },
        {
          "components": [
            {
              "internalType": "string",
              "name": "domain",
              "type": "string"
            },
            {
              "internalType": "string",
              "name": "username",
              "type": "string"
            },
            {
              "internalType": "string",
              "name": "password",
              "type": "string"
            }
          ],
          "indexed": false,
          "internalType": "struct PasswordManager.Password",
          "name": "pw",
          "type": "tuple"
        }
      ],
      "name": "PasswordSaved",
      "type": "event"
    },
    {
      "anonymous": false,
      "inputs": [
        {
          "indexed": true,
          "internalType": "address",
          "name": "sender",
          "type": "address"
        }
      ],
      "name": "PasswordUpdated",
      "type": "event"
    },
    {
      "stateMutability": "payable",
      "type": "fallback",
      "payable": true
    },
    {
      "inputs": [],
      "name": "balance",
      "outputs": [
        {
          "internalType": "uint256",
          "name": "",
          "type": "uint256"
        }
      ],
      "stateMutability": "view",
      "type": "function",
      "constant": true
    },
    {
      "inputs": [],
      "name": "owner",
      "outputs": [
        {
          "internalType": "address",
          "name": "",
          "type": "address"
        }
      ],
      "stateMutability": "view",
      "type": "function",
      "constant": true
    },
    {
      "stateMutability": "payable",
      "type": "receive",
      "payable": true
    },
    {
      "inputs": [],
      "name": "getPasswordList",
      "outputs": [
        {
          "components": [
            {
              "internalType": "string",
              "name": "domain",
              "type": "string"
            },
            {
              "internalType": "string",
              "name": "username",
              "type": "string"
            },
            {
              "internalType": "string",
              "name": "password",
              "type": "string"
            }
          ],
          "internalType": "struct PasswordManager.Password[]",
          "name": "",
          "type": "tuple[]"
        }
      ],
      "stateMutability": "view",
      "type": "function",
      "constant": true
    },
    {
      "inputs": [
        {
          "internalType": "string",
          "name": "_domain",
          "type": "string"
        },
        {
          "internalType": "string",
          "name": "_username",
          "type": "string"
        },
        {
          "internalType": "string",
          "name": "_password",
          "type": "string"
        }
      ],
      "name": "saveNewPassword",
      "outputs": [
        {
          "internalType": "bool",
          "name": "",
          "type": "bool"
        }
      ],
      "stateMutability": "payable",
      "type": "function",
      "payable": true
    },
    {
      "inputs": [
        {
          "internalType": "uint256",
          "name": "_index",
          "type": "uint256"
        },
        {
          "internalType": "string",
          "name": "_updatedDomain",
          "type": "string"
        },
        {
          "internalType": "string",
          "name": "_updatedUsername",
          "type": "string"
        },
        {
          "internalType": "string",
          "name": "_updatedPassword",
          "type": "string"
        }
      ],
      "name": "updatePassword",
      "outputs": [
        {
          "internalType": "bool",
          "name": "",
          "type": "bool"
        }
      ],
      "stateMutability": "nonpayable",
      "type": "function"
    },
    {
      "inputs": [
        {
          "internalType": "uint256",
          "name": "_index",
          "type": "uint256"
        }
      ],
      "name": "deletePassword",
      "outputs": [
        {
          "internalType": "bool",
          "name": "",
          "type": "bool"
        }
      ],
      "stateMutability": "nonpayable",
      "type": "function"
    },
    {
      "inputs": [
        {
          "internalType": "uint256",
          "name": "_amountToWithdraw",
          "type": "uint256"
        }
      ],
      "name": "withdraw",
      "outputs": [
        {
          "internalType": "bool",
          "name": "",
          "type": "bool"
        }
      ],
      "stateMutability": "payable",
      "type": "function",
      "payable": true
    }
  ],
  "bytecode": "0x608060405234801561001057600080fd5b50336000806101000a81548173ffffffffffffffffffffffffffffffffffffffff021916908373ffffffffffffffffffffffffffffffffffffffff1602179055506117b9806100606000396000f3fe6080604052600436106100745760003560e01c8063a04b6fe11161004e578063a04b6fe114610135578063b69ef8a814610165578063c3b3863c14610190578063d2051f8e146101cd57610094565b80632e1a7d4d146100af57806361c68110146100df5780638da5cb5b1461010a57610094565b3661009457346001600082825461008b9190610e12565b92505081905550005b34600160008282546100a69190610e12565b92505081905550005b6100c960048036038101906100c49190610ea8565b61020a565b6040516100d69190610ef0565b60405180910390f35b3480156100eb57600080fd5b506100f461039a565b60405161010191906110c4565b60405180910390f35b34801561011657600080fd5b5061011f610671565b60405161012c9190611127565b60405180910390f35b61014f600480360381019061014a9190611277565b610695565b60405161015c9190610ef0565b60405180910390f35b34801561017157600080fd5b5061017a6107d1565b604051610187919061132d565b60405180910390f35b34801561019c57600080fd5b506101b760048036038101906101b29190610ea8565b6107d7565b6040516101c49190610ef0565b60405180910390f35b3480156101d957600080fd5b506101f460048036038101906101ef9190611348565b610ac0565b6040516102019190610ef0565b60405180910390f35b60008060009054906101000a900473ffffffffffffffffffffffffffffffffffffffff1673ffffffffffffffffffffffffffffffffffffffff163373ffffffffffffffffffffffffffffffffffffffff161461029b576040517f08c379a000000000000000000000000000000000000000000000000000000000815260040161029290611486565b60405180910390fd5b6001548211156102e0576040517f08c379a00000000000000000000000000000000000000000000000000000000081526004016102d7906114f2565b60405180910390fd5b81600160008282546102f29190611512565b9250508190555060008060009054906101000a900473ffffffffffffffffffffffffffffffffffffffff1673ffffffffffffffffffffffffffffffffffffffff16836040516103409061159d565b60006040518083038185875af1925050503d806000811461037d576040519150601f19603f3d011682016040523d82523d6000602084013e610382565b606091505b505090508061039057600080fd5b6001915050919050565b60606000600260003373ffffffffffffffffffffffffffffffffffffffff1673ffffffffffffffffffffffffffffffffffffffff1681526020019081526020016000208054905011610421576040517f08c379a000000000000000000000000000000000000000000000000000000000815260040161041890611624565b60405180910390fd5b600260003373ffffffffffffffffffffffffffffffffffffffff1673ffffffffffffffffffffffffffffffffffffffff168152602001908152602001600020805480602002602001604051908101604052809291908181526020016000905b8282101561066857838290600052602060002090600302016040518060600160405290816000820180546104b390611673565b80601f01602080910402602001604051908101604052809291908181526020018280546104df90611673565b801561052c5780601f106105015761010080835404028352916020019161052c565b820191906000526020600020905b81548152906001019060200180831161050f57829003601f168201915b5050505050815260200160018201805461054590611673565b80601f016020809104026020016040519081016040528092919081815260200182805461057190611673565b80156105be5780601f10610593576101008083540402835291602001916105be565b820191906000526020600020905b8154815290600101906020018083116105a157829003601f168201915b505050505081526020016002820180546105d790611673565b80601f016020809104026020016040519081016040528092919081815260200182805461060390611673565b80156106505780601f1061062557610100808354040283529160200191610650565b820191906000526020600020905b81548152906001019060200180831161063357829003601f168201915b50505050508152505081526020019060010190610480565b50505050905090565b60008054906101000a900473ffffffffffffffffffffffffffffffffffffffff1681565b6000806040518060600160405280868152602001858152602001848152509050600260003373ffffffffffffffffffffffffffffffffffffffff1673ffffffffffffffffffffffffffffffffffffffff168152602001908152602001600020819080600181540180825580915050600190039060005260206000209060030201600090919091909150600082015181600001908051906020019061073a929190610c69565b506020820151816001019080519060200190610757929190610c69565b506040820151816002019080519060200190610774929190610c69565b5050503373ffffffffffffffffffffffffffffffffffffffff167f6ce0ac746c3dae0d04731da4df48f4ab4c9158c9130dabb57b57ed3450619612826040516107bd9190611703565b60405180910390a260019150509392505050565b60015481565b600080600260003373ffffffffffffffffffffffffffffffffffffffff1673ffffffffffffffffffffffffffffffffffffffff168152602001908152602001600020805490501161085d576040517f08c379a000000000000000000000000000000000000000000000000000000000815260040161085490611624565b60405180910390fd5b6000600260003373ffffffffffffffffffffffffffffffffffffffff1673ffffffffffffffffffffffffffffffffffffffff16815260200190815260200160002080549050905060018111156109db57600260003373ffffffffffffffffffffffffffffffffffffffff1673ffffffffffffffffffffffffffffffffffffffff1681526020019081526020016000206001826108f99190611512565b8154811061090a57610909611725565b5b9060005260206000209060030201600260003373ffffffffffffffffffffffffffffffffffffffff1673ffffffffffffffffffffffffffffffffffffffff168152602001908152602001600020848154811061096957610968611725565b5b9060005260206000209060030201600082018160000190805461098b90611673565b610996929190610cef565b5060018201816001019080546109ab90611673565b6109b6929190610cef565b5060028201816002019080546109cb90611673565b6109d6929190610cef565b509050505b600260003373ffffffffffffffffffffffffffffffffffffffff1673ffffffffffffffffffffffffffffffffffffffff168152602001908152602001600020805480610a2a57610a29611754565b5b600190038181906000526020600020906003020160008082016000610a4f9190610d7c565b600182016000610a5f9190610d7c565b600282016000610a6f9190610d7c565b505090553373ffffffffffffffffffffffffffffffffffffffff167fc9136657b3a49b964bfc5c2a296352dadb93eb43d997f910bfeda105bd5a640560405160405180910390a26001915050919050565b600080600260003373ffffffffffffffffffffffffffffffffffffffff1673ffffffffffffffffffffffffffffffffffffffff1681526020019081526020016000208054905011610b46576040517f08c379a0000000000000000000000000000000000000000000000000000000008152600401610b3d90611624565b60405180910390fd5b604051806060016040528085815260200184815260200183815250600260003373ffffffffffffffffffffffffffffffffffffffff1673ffffffffffffffffffffffffffffffffffffffff1681526020019081526020016000208681548110610bb257610bb1611725565b5b90600052602060002090600302016000820151816000019080519060200190610bdc929190610c69565b506020820151816001019080519060200190610bf9929190610c69565b506040820151816002019080519060200190610c16929190610c69565b509050503373ffffffffffffffffffffffffffffffffffffffff167f59d5e5502067ddbcd17d342059dce1fd469d88df519507513e7b392a068a936160405160405180910390a260019050949350505050565b828054610c7590611673565b90600052602060002090601f016020900481019282610c975760008555610cde565b82601f10610cb057805160ff1916838001178555610cde565b82800160010185558215610cde579182015b82811115610cdd578251825591602001919060010190610cc2565b5b509050610ceb9190610dbc565b5090565b828054610cfb90611673565b90600052602060002090601f016020900481019282610d1d5760008555610d6b565b82601f10610d2e5780548555610d6b565b82800160010185558215610d6b57600052602060002091601f016020900482015b82811115610d6a578254825591600101919060010190610d4f565b5b509050610d789190610dbc565b5090565b508054610d8890611673565b6000825580601f10610d9a5750610db9565b601f016020900490600052602060002090810190610db89190610dbc565b5b50565b5b80821115610dd5576000816000905550600101610dbd565b5090565b6000819050919050565b7f4e487b7100000000000000000000000000000000000000000000000000000000600052601160045260246000fd5b6000610e1d82610dd9565b9150610e2883610dd9565b9250827fffffffffffffffffffffffffffffffffffffffffffffffffffffffffffffffff03821115610e5d57610e5c610de3565b5b828201905092915050565b6000604051905090565b600080fd5b600080fd5b610e8581610dd9565b8114610e9057600080fd5b50565b600081359050610ea281610e7c565b92915050565b600060208284031215610ebe57610ebd610e72565b5b6000610ecc84828501610e93565b91505092915050565b60008115159050919050565b610eea81610ed5565b82525050565b6000602082019050610f056000830184610ee1565b92915050565b600081519050919050565b600082825260208201905092915050565b6000819050602082019050919050565b600081519050919050565b600082825260208201905092915050565b60005b83811015610f71578082015181840152602081019050610f56565b83811115610f80576000848401525b50505050565b6000601f19601f8301169050919050565b6000610fa282610f37565b610fac8185610f42565b9350610fbc818560208601610f53565b610fc581610f86565b840191505092915050565b60006060830160008301518482036000860152610fed8282610f97565b915050602083015184820360208601526110078282610f97565b915050604083015184820360408601526110218282610f97565b9150508091505092915050565b600061103a8383610fd0565b905092915050565b6000602082019050919050565b600061105a82610f0b565b6110648185610f16565b93508360208202850161107685610f27565b8060005b858110156110b25784840389528151611093858261102e565b945061109e83611042565b925060208a0199505060018101905061107a565b50829750879550505050505092915050565b600060208201905081810360008301526110de818461104f565b905092915050565b600073ffffffffffffffffffffffffffffffffffffffff82169050919050565b6000611111826110e6565b9050919050565b61112181611106565b82525050565b600060208201905061113c6000830184611118565b92915050565b600080fd5b600080fd5b7f4e487b7100000000000000000000000000000000000000000000000000000000600052604160045260246000fd5b61118482610f86565b810181811067ffffffffffffffff821117156111a3576111a261114c565b5b80604052505050565b60006111b6610e68565b90506111c2828261117b565b919050565b600067ffffffffffffffff8211156111e2576111e161114c565b5b6111eb82610f86565b9050602081019050919050565b82818337600083830152505050565b600061121a611215846111c7565b6111ac565b90508281526020810184848401111561123657611235611147565b5b6112418482856111f8565b509392505050565b600082601f83011261125e5761125d611142565b5b813561126e848260208601611207565b91505092915050565b6000806000606084860312156112905761128f610e72565b5b600084013567ffffffffffffffff8111156112ae576112ad610e77565b5b6112ba86828701611249565b935050602084013567ffffffffffffffff8111156112db576112da610e77565b5b6112e786828701611249565b925050604084013567ffffffffffffffff81111561130857611307610e77565b5b61131486828701611249565b9150509250925092565b61132781610dd9565b82525050565b6000602082019050611342600083018461131e565b92915050565b6000806000806080858703121561136257611361610e72565b5b600061137087828801610e93565b945050602085013567ffffffffffffffff81111561139157611390610e77565b5b61139d87828801611249565b935050604085013567ffffffffffffffff8111156113be576113bd610e77565b5b6113ca87828801611249565b925050606085013567ffffffffffffffff8111156113eb576113ea610e77565b5b6113f787828801611249565b91505092959194509250565b600082825260208201905092915050565b7f4f6e6c7920746865206f776e65722063616e206163636573732074686973206660008201527f756e6374696f6e21000000000000000000000000000000000000000000000000602082015250565b6000611470602883611403565b915061147b82611414565b604082019050919050565b6000602082019050818103600083015261149f81611463565b9050919050565b7f496e73756666696369656e742062616c616e6365210000000000000000000000600082015250565b60006114dc601583611403565b91506114e7826114a6565b602082019050919050565b6000602082019050818103600083015261150b816114cf565b9050919050565b600061151d82610dd9565b915061152883610dd9565b92508282101561153b5761153a610de3565b5b828203905092915050565b600081905092915050565b7f5769746864726177616c2066726f6d2050617373776f7264204d616e61676572600082015250565b6000611587602083611546565b915061159282611551565b602082019050919050565b60006115a88261157a565b9150819050919050565b7f546865726520617265206e6f2070617373776f72647320746f2072657472696560008201527f7665210000000000000000000000000000000000000000000000000000000000602082015250565b600061160e602383611403565b9150611619826115b2565b604082019050919050565b6000602082019050818103600083015261163d81611601565b9050919050565b7f4e487b7100000000000000000000000000000000000000000000000000000000600052602260045260246000fd5b6000600282049050600182168061168b57607f821691505b6020821081141561169f5761169e611644565b5b50919050565b600060608301600083015184820360008601526116c28282610f97565b915050602083015184820360208601526116dc8282610f97565b915050604083015184820360408601526116f68282610f97565b9150508091505092915050565b6000602082019050818103600083015261171d81846116a5565b905092915050565b7f4e487b7100000000000000000000000000000000000000000000000000000000600052603260045260246000fd5b7f4e487b7100000000000000000000000000000000000000000000000000000000600052603160045260246000fdfea2646970667358221220979fc7e3522d7a575769b1663366790c02c2403e54b50c99a83d78c6d234cec964736f6c63430008090033",
  "immutableReferences": {},
  "source": "// SPDX-License-Identifier: MIT\npragma solidity ^0.8.0;\n\ncontract PasswordManager {\n\n    //fallback function\n    fallback() payable external {\n    balance += msg.value;\n    }\n\n    receive() payable external {\n    balance += msg.value;\n    }\n\n    //TODO Comments\n\n    //TODO Use at least two design patterns from the \"Smart Contracts\" section\n\n    //TODO Protect against two attack vectors from the \"Smart Contracts\" section with its the SWC number\n\n    //TODO Inherits from at least one library or interface\n\n    //TODO Can be easily compiled, migrated and tested\n    //TODO Have at least five unit tests for your smart contract(s) that pass. \n    //In the code, include a sentence or two explaining what the tests are covering their expected behavior.\n\n    /* Events */\n    event PasswordSaved(address indexed sender, Password pw);\n\n    event PasswordDeleted(address indexed sender);\n\n    event PasswordUpdated(address indexed sender);\n\n    address public owner;\n\n    //contract ballance\n    uint public balance;\n\n    //Create struct for passwords\n    struct Password {\n        string domain;\n        string username;\n        string password;\n    }\n\n    //Have mapping for storing passwords\n    mapping(address => Password[]) private passwords;\n\n\n    constructor() {\n        owner = msg.sender;\n    }\n\n    /* Modifiers - maybe? */\n    modifier hasAPassword {\n        require(passwords[msg.sender].length > 0, \"There are no passwords to retrieve!\");\n        _;\n    }\n    \n    modifier onlyOwner {\n        require(msg.sender == owner, \"Only the owner can access this function!\");\n        _;\n    }\n\n\n    function getPasswordList() public view hasAPassword returns (Password[] memory){ //not sure yet whether to use the Password struct or to break it down into its components as arguments \n\n        //return password list\n        return passwords[msg.sender];\n    }\n\n    function saveNewPassword(string memory _domain, string memory _username, string memory _password) public payable returns (bool){\n\n        //- Prepare passord\n        Password memory encryptedPassword = Password({domain: _domain, username: _username, password: _password});\n\n        //add to passwords mapping\n        passwords[msg.sender].push(encryptedPassword);\n\n\n\n        emit PasswordSaved(msg.sender, encryptedPassword);\n\n        //return true\n        return true;\n    }\n\n    function updatePassword(uint _index, string memory _updatedDomain, string memory _updatedUsername, string memory _updatedPassword) public hasAPassword returns (bool){ \n        //- ?Check if it exists in mapping (may be done at browser level)\n        // require(passwords[msg.sender], \"You do not have a password stored.\");\n\n        passwords[msg.sender][_index] = Password({domain: _updatedDomain, username: _updatedUsername, password: _updatedPassword});\n\n        emit PasswordUpdated(msg.sender);\n        \n        //return true\n        return true;\n    }\n\n    function deletePassword(uint _index) public hasAPassword returns (bool){ //not sure yet whether to use the Password struct or to break it down into its components as arguments \n\n        //- ?Check if it exists in mapping (may be done at browser level)\n        // require(passwords[msg.sender], \"You do not have a password stored.\");\n        \n        uint l = passwords[msg.sender].length;\n        \n        if (l > 1) {\n            passwords[msg.sender][_index] = passwords[msg.sender][l - 1];\n        }\n        \n        passwords[msg.sender].pop();\n       \n        emit PasswordDeleted(msg.sender);\n        \n        //return true\n        return true;\n    }\n\n\n\n    //function to withdraw funds from contract - onlyOwner\n    function withdraw(uint _amountToWithdraw) public payable onlyOwner returns (bool) {\n        require(_amountToWithdraw <= balance, \"Insufficient balance!\");\n        balance -= _amountToWithdraw;\n        (bool success, ) = owner.call{value: _amountToWithdraw}(\"Withdrawal from Password Manager\");\n        require(success);\n        \n        return true;\n    }\n    \n    \n}",
  "sourcePath": "/Users/Saad/Documents/Personal/Personal_Growth/Bootcamp/Final Project/blockchain-developer-bootcamp-final-project/contracts/PasswordManager.sol",
  "compiler": {
    "name": "solc",
    "version": "0.8.9+commit.e5eed63a.Emscripten.clang"
  },
  "schemaVersion": "3.4.3",
  "updatedAt": "2021-10-22T00:57:11.112Z",
  "networkType": "ethereum",
  "devdoc": {
    "kind": "dev",
    "methods": {},
    "version": 1
  },
  "userdoc": {
    "kind": "user",
    "methods": {},
    "version": 1
  }
}