{
  "contractName": "PasswordManager",
  "abi": [
    {
      "inputs": [],
      "stateMutability": "nonpayable",
      "type": "constructor"
    },
    {
      "anonymous": false,
      "inputs": [
        {
          "indexed": true,
          "internalType": "address",
          "name": "sender",
          "type": "address"
        }
      ],
      "name": "PasswordDeleted",
      "type": "event"
    },
    {
      "anonymous": false,
      "inputs": [
        {
          "indexed": true,
          "internalType": "address",
          "name": "sender",
          "type": "address"
        }
      ],
      "name": "PasswordListRead",
      "type": "event"
    },
    {
      "anonymous": false,
      "inputs": [
        {
          "indexed": true,
          "internalType": "address",
          "name": "sender",
          "type": "address"
        },
        {
          "components": [
            {
              "internalType": "bytes32",
              "name": "domain",
              "type": "bytes32"
            },
            {
              "internalType": "bytes32",
              "name": "username",
              "type": "bytes32"
            },
            {
              "internalType": "bytes32",
              "name": "password",
              "type": "bytes32"
            }
          ],
          "indexed": false,
          "internalType": "struct PasswordManager.Password",
          "name": "pw",
          "type": "tuple"
        }
      ],
      "name": "PasswordSaved",
      "type": "event"
    },
    {
      "anonymous": false,
      "inputs": [
        {
          "indexed": true,
          "internalType": "address",
          "name": "sender",
          "type": "address"
        }
      ],
      "name": "PasswordUpdated",
      "type": "event"
    },
    {
      "stateMutability": "payable",
      "type": "fallback",
      "payable": true
    },
    {
      "inputs": [],
      "name": "balance",
      "outputs": [
        {
          "internalType": "uint256",
          "name": "",
          "type": "uint256"
        }
      ],
      "stateMutability": "view",
      "type": "function",
      "constant": true
    },
    {
      "inputs": [],
      "name": "owner",
      "outputs": [
        {
          "internalType": "address",
          "name": "",
          "type": "address"
        }
      ],
      "stateMutability": "view",
      "type": "function",
      "constant": true
    },
    {
      "inputs": [
        {
          "internalType": "address",
          "name": "",
          "type": "address"
        },
        {
          "internalType": "uint256",
          "name": "",
          "type": "uint256"
        }
      ],
      "name": "passwords",
      "outputs": [
        {
          "internalType": "bytes32",
          "name": "domain",
          "type": "bytes32"
        },
        {
          "internalType": "bytes32",
          "name": "username",
          "type": "bytes32"
        },
        {
          "internalType": "bytes32",
          "name": "password",
          "type": "bytes32"
        }
      ],
      "stateMutability": "view",
      "type": "function",
      "constant": true
    },
    {
      "stateMutability": "payable",
      "type": "receive",
      "payable": true
    },
    {
      "inputs": [],
      "name": "getPasswordList",
      "outputs": [
        {
          "components": [
            {
              "internalType": "bytes32",
              "name": "domain",
              "type": "bytes32"
            },
            {
              "internalType": "bytes32",
              "name": "username",
              "type": "bytes32"
            },
            {
              "internalType": "bytes32",
              "name": "password",
              "type": "bytes32"
            }
          ],
          "internalType": "struct PasswordManager.Password[]",
          "name": "",
          "type": "tuple[]"
        }
      ],
      "stateMutability": "view",
      "type": "function",
      "constant": true
    },
    {
      "inputs": [
        {
          "internalType": "bytes32",
          "name": "_domain",
          "type": "bytes32"
        },
        {
          "internalType": "bytes32",
          "name": "_username",
          "type": "bytes32"
        },
        {
          "internalType": "bytes32",
          "name": "_password",
          "type": "bytes32"
        }
      ],
      "name": "saveNewPassword",
      "outputs": [
        {
          "internalType": "bool",
          "name": "",
          "type": "bool"
        }
      ],
      "stateMutability": "payable",
      "type": "function",
      "payable": true
    },
    {
      "inputs": [
        {
          "internalType": "uint256",
          "name": "_index",
          "type": "uint256"
        },
        {
          "internalType": "bytes32",
          "name": "_updatedDomain",
          "type": "bytes32"
        },
        {
          "internalType": "bytes32",
          "name": "_updatedUsername",
          "type": "bytes32"
        },
        {
          "internalType": "bytes32",
          "name": "_updatedPassword",
          "type": "bytes32"
        }
      ],
      "name": "updatePassword",
      "outputs": [
        {
          "internalType": "bool",
          "name": "",
          "type": "bool"
        }
      ],
      "stateMutability": "nonpayable",
      "type": "function"
    },
    {
      "inputs": [
        {
          "internalType": "uint256",
          "name": "_index",
          "type": "uint256"
        }
      ],
      "name": "deletePassword",
      "outputs": [
        {
          "internalType": "bool",
          "name": "",
          "type": "bool"
        }
      ],
      "stateMutability": "nonpayable",
      "type": "function"
    },
    {
      "inputs": [
        {
          "internalType": "uint256",
          "name": "_amountToWithdraw",
          "type": "uint256"
        }
      ],
      "name": "withdraw",
      "outputs": [
        {
          "internalType": "bool",
          "name": "",
          "type": "bool"
        }
      ],
      "stateMutability": "payable",
      "type": "function",
      "payable": true
    }
  ],
  "bytecode": "0x608060405234801561001057600080fd5b50336000806101000a81548173ffffffffffffffffffffffffffffffffffffffff021916908373ffffffffffffffffffffffffffffffffffffffff160217905550611235806100606000396000f3fe60806040526004361061007f5760003560e01c8063b69ef8a81161004e578063b69ef8a814610170578063c3b3863c1461019b578063d67814fd146101d8578063e6904cad146102175761009f565b80630970291c146100ba5780632e1a7d4d146100ea57806361c681101461011a5780638da5cb5b146101455761009f565b3661009f5734600160008282546100969190610acf565b92505081905550005b34600160008282546100b19190610acf565b92505081905550005b6100d460048036038101906100cf9190610b60565b610254565b6040516100e19190610bce565b60405180910390f35b61010460048036038101906100ff9190610c15565b610357565b6040516101119190610bce565b60405180910390f35b34801561012657600080fd5b5061012f6104e7565b60405161013c9190610d42565b60405180910390f35b34801561015157600080fd5b5061015a610626565b6040516101679190610da5565b60405180910390f35b34801561017c57600080fd5b5061018561064a565b6040516101929190610dcf565b60405180910390f35b3480156101a757600080fd5b506101c260048036038101906101bd9190610c15565b610650565b6040516101cf9190610bce565b60405180910390f35b3480156101e457600080fd5b506101ff60048036038101906101fa9190610e16565b6108df565b60405161020e93929190610e65565b60405180910390f35b34801561022357600080fd5b5061023e60048036038101906102399190610e9c565b610926565b60405161024b9190610bce565b60405180910390f35b6000806040518060600160405280868152602001858152602001848152509050600260003373ffffffffffffffffffffffffffffffffffffffff1673ffffffffffffffffffffffffffffffffffffffff16815260200190815260200160002081908060018154018082558091505060019003906000526020600020906003020160009091909190915060008201518160000155602082015181600101556040820151816002015550503373ffffffffffffffffffffffffffffffffffffffff167fe5528384372b5dc1221043c532e48ad610099d980752f63f9c7f346d3eb6531f826040516103439190610f45565b60405180910390a260019150509392505050565b60008060009054906101000a900473ffffffffffffffffffffffffffffffffffffffff1673ffffffffffffffffffffffffffffffffffffffff163373ffffffffffffffffffffffffffffffffffffffff16146103e8576040517f08c379a00000000000000000000000000000000000000000000000000000000081526004016103df90610fe3565b60405180910390fd5b60015482111561042d576040517f08c379a00000000000000000000000000000000000000000000000000000000081526004016104249061104f565b60405180910390fd5b816001600082825461043f919061106f565b9250508190555060008060009054906101000a900473ffffffffffffffffffffffffffffffffffffffff1673ffffffffffffffffffffffffffffffffffffffff168360405161048d906110fa565b60006040518083038185875af1925050503d80600081146104ca576040519150601f19603f3d011682016040523d82523d6000602084013e6104cf565b606091505b50509050806104dd57600080fd5b6001915050919050565b60606000600260003373ffffffffffffffffffffffffffffffffffffffff1673ffffffffffffffffffffffffffffffffffffffff168152602001908152602001600020805490501161056e576040517f08c379a000000000000000000000000000000000000000000000000000000000815260040161056590611181565b60405180910390fd5b600260003373ffffffffffffffffffffffffffffffffffffffff1673ffffffffffffffffffffffffffffffffffffffff168152602001908152602001600020805480602002602001604051908101604052809291908181526020016000905b8282101561061d57838290600052602060002090600302016040518060600160405290816000820154815260200160018201548152602001600282015481525050815260200190600101906105cd565b50505050905090565b60008054906101000a900473ffffffffffffffffffffffffffffffffffffffff1681565b60015481565b600080600260003373ffffffffffffffffffffffffffffffffffffffff1673ffffffffffffffffffffffffffffffffffffffff16815260200190815260200160002080549050116106d6576040517f08c379a00000000000000000000000000000000000000000000000000000000081526004016106cd90611181565b60405180910390fd5b6000600260003373ffffffffffffffffffffffffffffffffffffffff1673ffffffffffffffffffffffffffffffffffffffff168152602001908152602001600020805490509050600181111561081257600260003373ffffffffffffffffffffffffffffffffffffffff1673ffffffffffffffffffffffffffffffffffffffff168152602001908152602001600020600182610772919061106f565b81548110610783576107826111a1565b5b9060005260206000209060030201600260003373ffffffffffffffffffffffffffffffffffffffff1673ffffffffffffffffffffffffffffffffffffffff16815260200190815260200160002084815481106107e2576107e16111a1565b5b90600052602060002090600302016000820154816000015560018201548160010155600282015481600201559050505b600260003373ffffffffffffffffffffffffffffffffffffffff1673ffffffffffffffffffffffffffffffffffffffff168152602001908152602001600020805480610861576108606111d0565b5b600190038181906000526020600020906003020160008082016000905560018201600090556002820160009055505090553373ffffffffffffffffffffffffffffffffffffffff167fc9136657b3a49b964bfc5c2a296352dadb93eb43d997f910bfeda105bd5a640560405160405180910390a26001915050919050565b600260205281600052604060002081815481106108fb57600080fd5b9060005260206000209060030201600091509150508060000154908060010154908060020154905083565b600080600260003373ffffffffffffffffffffffffffffffffffffffff1673ffffffffffffffffffffffffffffffffffffffff16815260200190815260200160002080549050116109ac576040517f08c379a00000000000000000000000000000000000000000000000000000000081526004016109a390611181565b60405180910390fd5b604051806060016040528085815260200184815260200183815250600260003373ffffffffffffffffffffffffffffffffffffffff1673ffffffffffffffffffffffffffffffffffffffff1681526020019081526020016000208681548110610a1857610a176111a1565b5b90600052602060002090600302016000820151816000015560208201518160010155604082015181600201559050503373ffffffffffffffffffffffffffffffffffffffff167f59d5e5502067ddbcd17d342059dce1fd469d88df519507513e7b392a068a936160405160405180910390a260019050949350505050565b6000819050919050565b7f4e487b7100000000000000000000000000000000000000000000000000000000600052601160045260246000fd5b6000610ada82610a96565b9150610ae583610a96565b9250827fffffffffffffffffffffffffffffffffffffffffffffffffffffffffffffffff03821115610b1a57610b19610aa0565b5b828201905092915050565b600080fd5b6000819050919050565b610b3d81610b2a565b8114610b4857600080fd5b50565b600081359050610b5a81610b34565b92915050565b600080600060608486031215610b7957610b78610b25565b5b6000610b8786828701610b4b565b9350506020610b9886828701610b4b565b9250506040610ba986828701610b4b565b9150509250925092565b60008115159050919050565b610bc881610bb3565b82525050565b6000602082019050610be36000830184610bbf565b92915050565b610bf281610a96565b8114610bfd57600080fd5b50565b600081359050610c0f81610be9565b92915050565b600060208284031215610c2b57610c2a610b25565b5b6000610c3984828501610c00565b91505092915050565b600081519050919050565b600082825260208201905092915050565b6000819050602082019050919050565b610c7781610b2a565b82525050565b606082016000820151610c936000850182610c6e565b506020820151610ca66020850182610c6e565b506040820151610cb96040850182610c6e565b50505050565b6000610ccb8383610c7d565b60608301905092915050565b6000602082019050919050565b6000610cef82610c42565b610cf98185610c4d565b9350610d0483610c5e565b8060005b83811015610d35578151610d1c8882610cbf565b9750610d2783610cd7565b925050600181019050610d08565b5085935050505092915050565b60006020820190508181036000830152610d5c8184610ce4565b905092915050565b600073ffffffffffffffffffffffffffffffffffffffff82169050919050565b6000610d8f82610d64565b9050919050565b610d9f81610d84565b82525050565b6000602082019050610dba6000830184610d96565b92915050565b610dc981610a96565b82525050565b6000602082019050610de46000830184610dc0565b92915050565b610df381610d84565b8114610dfe57600080fd5b50565b600081359050610e1081610dea565b92915050565b60008060408385031215610e2d57610e2c610b25565b5b6000610e3b85828601610e01565b9250506020610e4c85828601610c00565b9150509250929050565b610e5f81610b2a565b82525050565b6000606082019050610e7a6000830186610e56565b610e876020830185610e56565b610e946040830184610e56565b949350505050565b60008060008060808587031215610eb657610eb5610b25565b5b6000610ec487828801610c00565b9450506020610ed587828801610b4b565b9350506040610ee687828801610b4b565b9250506060610ef787828801610b4b565b91505092959194509250565b606082016000820151610f196000850182610c6e565b506020820151610f2c6020850182610c6e565b506040820151610f3f6040850182610c6e565b50505050565b6000606082019050610f5a6000830184610f03565b92915050565b600082825260208201905092915050565b7f4f6e6c7920746865206f776e65722063616e206163636573732074686973206660008201527f756e6374696f6e21000000000000000000000000000000000000000000000000602082015250565b6000610fcd602883610f60565b9150610fd882610f71565b604082019050919050565b60006020820190508181036000830152610ffc81610fc0565b9050919050565b7f496e73756666696369656e742062616c616e6365210000000000000000000000600082015250565b6000611039601583610f60565b915061104482611003565b602082019050919050565b600060208201905081810360008301526110688161102c565b9050919050565b600061107a82610a96565b915061108583610a96565b92508282101561109857611097610aa0565b5b828203905092915050565b600081905092915050565b7f5769746864726177616c2066726f6d2050617373776f7264204d616e61676572600082015250565b60006110e46020836110a3565b91506110ef826110ae565b602082019050919050565b6000611105826110d7565b9150819050919050565b7f546865726520617265206e6f2070617373776f72647320746f2072657472696560008201527f7665210000000000000000000000000000000000000000000000000000000000602082015250565b600061116b602383610f60565b91506111768261110f565b604082019050919050565b6000602082019050818103600083015261119a8161115e565b9050919050565b7f4e487b7100000000000000000000000000000000000000000000000000000000600052603260045260246000fd5b7f4e487b7100000000000000000000000000000000000000000000000000000000600052603160045260246000fdfea2646970667358221220ee322d9ed3d43db371e099b81da0e4836205194183ec58730638ef7b0b7b820864736f6c63430008090033",
  "immutableReferences": {},
  "source": "// SPDX-License-Identifier: MIT\n// pragma solidity >=0.4.22 <0.9.0;\npragma solidity ^0.8.0;\n// pragma experimental ABIEncoderV2;\n\ncontract PasswordManager {\n\n    //fallback function\n    fallback() payable external {\n    balance += msg.value;\n    }\n\n    receive() payable external {\n    balance += msg.value;\n    }\n\n    //TODO Comments\n\n    //TODO Use at least two design patterns from the \"Smart Contracts\" section\n\n    //TODO Protect against two attack vectors from the \"Smart Contracts\" section with its the SWC number\n\n    //TODO Inherits from at least one library or interface\n\n    //TODO Can be easily compiled, migrated and tested\n    //TODO Have at least five unit tests for your smart contract(s) that pass. \n    //In the code, include a sentence or two explaining what the tests are covering their expected behavior.\n\n    /* Events */\n    event PasswordListRead(address indexed sender);\n\n    event PasswordSaved(address indexed sender, Password pw);\n\n    event PasswordDeleted(address indexed sender);\n\n    event PasswordUpdated(address indexed sender);\n\n    address public owner;\n\n    //contract ballance\n    uint public balance;\n\n    //creat struct for passwords\n    struct Password {\n        // uint index;\n        bytes32 domain;\n        bytes32 username;\n        bytes32 password;\n    }\n\n    //Have mapping for storing passwords\n    mapping(address => Password[]) public passwords;\n\n\n    constructor() {\n        owner = msg.sender;\n    }\n\n    /* Modifiers - maybe? */\n    modifier hasAPassword {\n        require(passwords[msg.sender].length > 0, \"There are no passwords to retrieve!\");\n        _;\n    }\n    \n    modifier onlyOwner {\n        require(msg.sender == owner, \"Only the owner can access this function!\");\n        _;\n    }\n\n\n    function getPasswordList() public view hasAPassword returns (Password[] memory){ //not sure yet whether to use the Password struct or to break it down into its components as arguments \n\n        //- ?Check if it exists in mapping (may be done at browser level)\n        // require(passwords[msg.sender].length > 0, \"You do not have a password stored.\");\n\n       \n        // emit PasswordListRead(msg.sender);\n\n        //return password list\n        return passwords[msg.sender];\n    }\n\n    function saveNewPassword(bytes32 _domain, bytes32 _username, bytes32 _password) public payable returns (bool){\n\n        //- ?Check if it exists in mapping (may be done at browser level)\n\n        //Set password index. This will be used as a key by the frontend.\n        // uint _index = 0;\n        // if (passwords[msg.sender].length > 0) {\n        //     _index = passwords[msg.sender].length;\n        // }\n        //- encrypt\n        // Password memory encryptedPassword = Password({index: _index, domain: _domain, username: _username, password: _password});\n        Password memory encryptedPassword = Password({domain: _domain, username: _username, password: _password});\n\n        //add to passwords mapping\n        passwords[msg.sender].push(encryptedPassword);\n\n        emit PasswordSaved(msg.sender, encryptedPassword);\n\n        //return true\n        return true;\n    }\n\n    function updatePassword(uint _index, bytes32 _updatedDomain, bytes32 _updatedUsername, bytes32 _updatedPassword) public hasAPassword returns (bool){ //not sure yet whether to use the Password struct or to break it down into its components as arguments \n\n        //- ?Check if it exists in mapping (may be done at browser level)\n        // require(passwords[msg.sender], \"You do not have a password stored.\");\n\n        // passwords[msg.sender][_index] = Password({index: _index, domain: _updatedDomain, username: _updatedUsername, password: _updatedPassword});\n        passwords[msg.sender][_index] = Password({domain: _updatedDomain, username: _updatedUsername, password: _updatedPassword});\n\n        emit PasswordUpdated(msg.sender);\n        \n        //return true\n        return true;\n    }\n\n    function deletePassword(uint _index) public hasAPassword returns (bool){ //not sure yet whether to use the Password struct or to break it down into its components as arguments \n\n        //- ?Check if it exists in mapping (may be done at browser level)\n        // require(passwords[msg.sender], \"You do not have a password stored.\");\n        \n        uint l = passwords[msg.sender].length;\n        \n        if (l > 1) {\n            passwords[msg.sender][_index] = passwords[msg.sender][l - 1];\n        }\n        \n        passwords[msg.sender].pop();\n       \n        emit PasswordDeleted(msg.sender);\n        \n        //return true\n        return true;\n    }\n\n\n\n    //function to withdraw funds from contract - onlyOwner\n    function withdraw(uint _amountToWithdraw) public payable onlyOwner returns (bool) {\n        require(_amountToWithdraw <= balance, \"Insufficient balance!\");\n        balance -= _amountToWithdraw;\n        (bool success, ) = owner.call{value: _amountToWithdraw}(\"Withdrawal from Password Manager\");\n        require(success);\n        \n        return true;\n    }\n    \n    \n}",
  "sourcePath": "/Users/Saad/Documents/Personal/Personal_Growth/Bootcamp/Final Project/blockchain-developer-bootcamp-final-project/contracts/PasswordManager.sol",
  "compiler": {
    "name": "solc",
    "version": "0.8.9+commit.e5eed63a.Emscripten.clang"
  },
  "schemaVersion": "3.4.3",
  "updatedAt": "2021-10-06T08:23:58.103Z",
  "networkType": "ethereum",
  "devdoc": {
    "kind": "dev",
    "methods": {},
    "version": 1
  },
  "userdoc": {
    "kind": "user",
    "methods": {},
    "version": 1
  }
}