{
  "contractName": "PasswordManager",
  "abi": [
    {
      "inputs": [],
      "stateMutability": "nonpayable",
      "type": "constructor"
    },
    {
      "anonymous": false,
      "inputs": [
        {
          "indexed": true,
          "internalType": "address",
          "name": "sender",
          "type": "address"
        }
      ],
      "name": "PasswordDeleted",
      "type": "event"
    },
    {
      "anonymous": false,
      "inputs": [
        {
          "indexed": true,
          "internalType": "address",
          "name": "sender",
          "type": "address"
        }
      ],
      "name": "PasswordListRead",
      "type": "event"
    },
    {
      "anonymous": false,
      "inputs": [
        {
          "indexed": true,
          "internalType": "address",
          "name": "sender",
          "type": "address"
        },
        {
          "components": [
            {
              "internalType": "uint256",
              "name": "index",
              "type": "uint256"
            },
            {
              "internalType": "bytes32",
              "name": "domain",
              "type": "bytes32"
            },
            {
              "internalType": "bytes32",
              "name": "username",
              "type": "bytes32"
            },
            {
              "internalType": "bytes32",
              "name": "password",
              "type": "bytes32"
            }
          ],
          "indexed": false,
          "internalType": "struct PasswordManager.Password",
          "name": "pw",
          "type": "tuple"
        }
      ],
      "name": "PasswordSaved",
      "type": "event"
    },
    {
      "anonymous": false,
      "inputs": [
        {
          "indexed": true,
          "internalType": "address",
          "name": "sender",
          "type": "address"
        }
      ],
      "name": "PasswordUpdated",
      "type": "event"
    },
    {
      "stateMutability": "payable",
      "type": "fallback",
      "payable": true
    },
    {
      "inputs": [],
      "name": "balance",
      "outputs": [
        {
          "internalType": "uint256",
          "name": "",
          "type": "uint256"
        }
      ],
      "stateMutability": "view",
      "type": "function",
      "constant": true
    },
    {
      "inputs": [],
      "name": "owner",
      "outputs": [
        {
          "internalType": "address",
          "name": "",
          "type": "address"
        }
      ],
      "stateMutability": "view",
      "type": "function",
      "constant": true
    },
    {
      "inputs": [
        {
          "internalType": "address",
          "name": "",
          "type": "address"
        },
        {
          "internalType": "uint256",
          "name": "",
          "type": "uint256"
        }
      ],
      "name": "passwords",
      "outputs": [
        {
          "internalType": "uint256",
          "name": "index",
          "type": "uint256"
        },
        {
          "internalType": "bytes32",
          "name": "domain",
          "type": "bytes32"
        },
        {
          "internalType": "bytes32",
          "name": "username",
          "type": "bytes32"
        },
        {
          "internalType": "bytes32",
          "name": "password",
          "type": "bytes32"
        }
      ],
      "stateMutability": "view",
      "type": "function",
      "constant": true
    },
    {
      "stateMutability": "payable",
      "type": "receive",
      "payable": true
    },
    {
      "inputs": [],
      "name": "getPasswordList",
      "outputs": [
        {
          "components": [
            {
              "internalType": "uint256",
              "name": "index",
              "type": "uint256"
            },
            {
              "internalType": "bytes32",
              "name": "domain",
              "type": "bytes32"
            },
            {
              "internalType": "bytes32",
              "name": "username",
              "type": "bytes32"
            },
            {
              "internalType": "bytes32",
              "name": "password",
              "type": "bytes32"
            }
          ],
          "internalType": "struct PasswordManager.Password[]",
          "name": "",
          "type": "tuple[]"
        }
      ],
      "stateMutability": "view",
      "type": "function",
      "constant": true
    },
    {
      "inputs": [
        {
          "internalType": "bytes32",
          "name": "_domain",
          "type": "bytes32"
        },
        {
          "internalType": "bytes32",
          "name": "_username",
          "type": "bytes32"
        },
        {
          "internalType": "bytes32",
          "name": "_password",
          "type": "bytes32"
        }
      ],
      "name": "saveNewPassword",
      "outputs": [
        {
          "internalType": "bool",
          "name": "",
          "type": "bool"
        }
      ],
      "stateMutability": "payable",
      "type": "function",
      "payable": true
    },
    {
      "inputs": [
        {
          "internalType": "uint256",
          "name": "_index",
          "type": "uint256"
        },
        {
          "internalType": "bytes32",
          "name": "_updatedDomain",
          "type": "bytes32"
        },
        {
          "internalType": "bytes32",
          "name": "_updatedUsername",
          "type": "bytes32"
        },
        {
          "internalType": "bytes32",
          "name": "_updatedPassword",
          "type": "bytes32"
        }
      ],
      "name": "updatePassword",
      "outputs": [
        {
          "internalType": "bool",
          "name": "",
          "type": "bool"
        }
      ],
      "stateMutability": "nonpayable",
      "type": "function"
    },
    {
      "inputs": [
        {
          "internalType": "uint256",
          "name": "_index",
          "type": "uint256"
        }
      ],
      "name": "deletePassword",
      "outputs": [
        {
          "internalType": "bool",
          "name": "",
          "type": "bool"
        }
      ],
      "stateMutability": "nonpayable",
      "type": "function"
    },
    {
      "inputs": [
        {
          "internalType": "uint256",
          "name": "_amountToWithdraw",
          "type": "uint256"
        }
      ],
      "name": "withdraw",
      "outputs": [
        {
          "internalType": "bool",
          "name": "",
          "type": "bool"
        }
      ],
      "stateMutability": "payable",
      "type": "function",
      "payable": true
    }
  ],
  "bytecode": "0x608060405234801561001057600080fd5b50336000806101000a81548173ffffffffffffffffffffffffffffffffffffffff021916908373ffffffffffffffffffffffffffffffffffffffff160217905550611353806100606000396000f3fe60806040526004361061007f5760003560e01c8063b69ef8a81161004e578063b69ef8a814610170578063c3b3863c1461019b578063d67814fd146101d8578063e6904cad146102185761009f565b80630970291c146100ba5780632e1a7d4d146100ea57806361c681101461011a5780638da5cb5b146101455761009f565b3661009f5734600160008282546100969190610baa565b92505081905550005b34600160008282546100b19190610baa565b92505081905550005b6100d460048036038101906100cf9190610c3b565b610255565b6040516100e19190610ca9565b60405180910390f35b61010460048036038101906100ff9190610cf0565b610400565b6040516101119190610ca9565b60405180910390f35b34801561012657600080fd5b5061012f610590565b60405161013c9190610e3f565b60405180910390f35b34801561015157600080fd5b5061015a6106d9565b6040516101679190610ea2565b60405180910390f35b34801561017c57600080fd5b506101856106fd565b6040516101929190610ecc565b60405180910390f35b3480156101a757600080fd5b506101c260048036038101906101bd9190610cf0565b610703565b6040516101cf9190610ca9565b60405180910390f35b3480156101e457600080fd5b506101ff60048036038101906101fa9190610f13565b6109a4565b60405161020f9493929190610f62565b60405180910390f35b34801561022457600080fd5b5061023f600480360381019061023a9190610fa7565b6109f1565b60405161024c9190610ca9565b60405180910390f35b600080600090506000600260003373ffffffffffffffffffffffffffffffffffffffff1673ffffffffffffffffffffffffffffffffffffffff1681526020019081526020016000208054905011156102ed57600260003373ffffffffffffffffffffffffffffffffffffffff1673ffffffffffffffffffffffffffffffffffffffff1681526020019081526020016000208054905090505b60006040518060800160405280838152602001878152602001868152602001858152509050600260003373ffffffffffffffffffffffffffffffffffffffff1673ffffffffffffffffffffffffffffffffffffffff1681526020019081526020016000208190806001815401808255809150506001900390600052602060002090600402016000909190919091506000820151816000015560208201518160010155604082015181600201556060820151816003015550503373ffffffffffffffffffffffffffffffffffffffff167f963f8b6fd5f4b99f904c31c488cf519da964a4a31d30ef2896eb5fbce1344e61826040516103eb9190611063565b60405180910390a26001925050509392505050565b60008060009054906101000a900473ffffffffffffffffffffffffffffffffffffffff1673ffffffffffffffffffffffffffffffffffffffff163373ffffffffffffffffffffffffffffffffffffffff1614610491576040517f08c379a000000000000000000000000000000000000000000000000000000000815260040161048890611101565b60405180910390fd5b6001548211156104d6576040517f08c379a00000000000000000000000000000000000000000000000000000000081526004016104cd9061116d565b60405180910390fd5b81600160008282546104e8919061118d565b9250508190555060008060009054906101000a900473ffffffffffffffffffffffffffffffffffffffff1673ffffffffffffffffffffffffffffffffffffffff168360405161053690611218565b60006040518083038185875af1925050503d8060008114610573576040519150601f19603f3d011682016040523d82523d6000602084013e610578565b606091505b505090508061058657600080fd5b6001915050919050565b60606000600260003373ffffffffffffffffffffffffffffffffffffffff1673ffffffffffffffffffffffffffffffffffffffff1681526020019081526020016000208054905011610617576040517f08c379a000000000000000000000000000000000000000000000000000000000815260040161060e9061129f565b60405180910390fd5b600260003373ffffffffffffffffffffffffffffffffffffffff1673ffffffffffffffffffffffffffffffffffffffff168152602001908152602001600020805480602002602001604051908101604052809291908181526020016000905b828210156106d0578382906000526020600020906004020160405180608001604052908160008201548152602001600182015481526020016002820154815260200160038201548152505081526020019060010190610676565b50505050905090565b60008054906101000a900473ffffffffffffffffffffffffffffffffffffffff1681565b60015481565b600080600260003373ffffffffffffffffffffffffffffffffffffffff1673ffffffffffffffffffffffffffffffffffffffff1681526020019081526020016000208054905011610789576040517f08c379a00000000000000000000000000000000000000000000000000000000081526004016107809061129f565b60405180910390fd5b6000600260003373ffffffffffffffffffffffffffffffffffffffff1673ffffffffffffffffffffffffffffffffffffffff16815260200190815260200160002080549050905060018111156108cf57600260003373ffffffffffffffffffffffffffffffffffffffff1673ffffffffffffffffffffffffffffffffffffffff168152602001908152602001600020600182610825919061118d565b81548110610836576108356112bf565b5b9060005260206000209060040201600260003373ffffffffffffffffffffffffffffffffffffffff1673ffffffffffffffffffffffffffffffffffffffff1681526020019081526020016000208481548110610895576108946112bf565b5b9060005260206000209060040201600082015481600001556001820154816001015560028201548160020155600382015481600301559050505b600260003373ffffffffffffffffffffffffffffffffffffffff1673ffffffffffffffffffffffffffffffffffffffff16815260200190815260200160002080548061091e5761091d6112ee565b5b6001900381819060005260206000209060040201600080820160009055600182016000905560028201600090556003820160009055505090553373ffffffffffffffffffffffffffffffffffffffff167fc9136657b3a49b964bfc5c2a296352dadb93eb43d997f910bfeda105bd5a640560405160405180910390a26001915050919050565b600260205281600052604060002081815481106109c057600080fd5b9060005260206000209060040201600091509150508060000154908060010154908060020154908060030154905084565b600080600260003373ffffffffffffffffffffffffffffffffffffffff1673ffffffffffffffffffffffffffffffffffffffff1681526020019081526020016000208054905011610a77576040517f08c379a0000000000000000000000000000000000000000000000000000000008152600401610a6e9061129f565b60405180910390fd5b604051806080016040528086815260200185815260200184815260200183815250600260003373ffffffffffffffffffffffffffffffffffffffff1673ffffffffffffffffffffffffffffffffffffffff1681526020019081526020016000208681548110610ae957610ae86112bf565b5b9060005260206000209060040201600082015181600001556020820151816001015560408201518160020155606082015181600301559050503373ffffffffffffffffffffffffffffffffffffffff167f59d5e5502067ddbcd17d342059dce1fd469d88df519507513e7b392a068a936160405160405180910390a260019050949350505050565b6000819050919050565b7f4e487b7100000000000000000000000000000000000000000000000000000000600052601160045260246000fd5b6000610bb582610b71565b9150610bc083610b71565b9250827fffffffffffffffffffffffffffffffffffffffffffffffffffffffffffffffff03821115610bf557610bf4610b7b565b5b828201905092915050565b600080fd5b6000819050919050565b610c1881610c05565b8114610c2357600080fd5b50565b600081359050610c3581610c0f565b92915050565b600080600060608486031215610c5457610c53610c00565b5b6000610c6286828701610c26565b9350506020610c7386828701610c26565b9250506040610c8486828701610c26565b9150509250925092565b60008115159050919050565b610ca381610c8e565b82525050565b6000602082019050610cbe6000830184610c9a565b92915050565b610ccd81610b71565b8114610cd857600080fd5b50565b600081359050610cea81610cc4565b92915050565b600060208284031215610d0657610d05610c00565b5b6000610d1484828501610cdb565b91505092915050565b600081519050919050565b600082825260208201905092915050565b6000819050602082019050919050565b610d5281610b71565b82525050565b610d6181610c05565b82525050565b608082016000820151610d7d6000850182610d49565b506020820151610d906020850182610d58565b506040820151610da36040850182610d58565b506060820151610db66060850182610d58565b50505050565b6000610dc88383610d67565b60808301905092915050565b6000602082019050919050565b6000610dec82610d1d565b610df68185610d28565b9350610e0183610d39565b8060005b83811015610e32578151610e198882610dbc565b9750610e2483610dd4565b925050600181019050610e05565b5085935050505092915050565b60006020820190508181036000830152610e598184610de1565b905092915050565b600073ffffffffffffffffffffffffffffffffffffffff82169050919050565b6000610e8c82610e61565b9050919050565b610e9c81610e81565b82525050565b6000602082019050610eb76000830184610e93565b92915050565b610ec681610b71565b82525050565b6000602082019050610ee16000830184610ebd565b92915050565b610ef081610e81565b8114610efb57600080fd5b50565b600081359050610f0d81610ee7565b92915050565b60008060408385031215610f2a57610f29610c00565b5b6000610f3885828601610efe565b9250506020610f4985828601610cdb565b9150509250929050565b610f5c81610c05565b82525050565b6000608082019050610f776000830187610ebd565b610f846020830186610f53565b610f916040830185610f53565b610f9e6060830184610f53565b95945050505050565b60008060008060808587031215610fc157610fc0610c00565b5b6000610fcf87828801610cdb565b9450506020610fe087828801610c26565b9350506040610ff187828801610c26565b925050606061100287828801610c26565b91505092959194509250565b6080820160008201516110246000850182610d49565b5060208201516110376020850182610d58565b50604082015161104a6040850182610d58565b50606082015161105d6060850182610d58565b50505050565b6000608082019050611078600083018461100e565b92915050565b600082825260208201905092915050565b7f4f6e6c7920746865206f776e65722063616e206163636573732074686973206660008201527f756e6374696f6e21000000000000000000000000000000000000000000000000602082015250565b60006110eb60288361107e565b91506110f68261108f565b604082019050919050565b6000602082019050818103600083015261111a816110de565b9050919050565b7f496e73756666696369656e742062616c616e6365210000000000000000000000600082015250565b600061115760158361107e565b915061116282611121565b602082019050919050565b600060208201905081810360008301526111868161114a565b9050919050565b600061119882610b71565b91506111a383610b71565b9250828210156111b6576111b5610b7b565b5b828203905092915050565b600081905092915050565b7f5769746864726177616c2066726f6d2050617373776f7264204d616e61676572600082015250565b60006112026020836111c1565b915061120d826111cc565b602082019050919050565b6000611223826111f5565b9150819050919050565b7f546865726520617265206e6f2070617373776f72647320746f2072657472696560008201527f7665210000000000000000000000000000000000000000000000000000000000602082015250565b600061128960238361107e565b91506112948261122d565b604082019050919050565b600060208201905081810360008301526112b88161127c565b9050919050565b7f4e487b7100000000000000000000000000000000000000000000000000000000600052603260045260246000fd5b7f4e487b7100000000000000000000000000000000000000000000000000000000600052603160045260246000fdfea26469706673582212203caee24e32863e1cd362eb3dec4e08b77662177f9cbc6be48d0f916fa1d74fbd64736f6c63430008090033",
  "immutableReferences": {},
  "source": "// SPDX-License-Identifier: MIT\n// pragma solidity >=0.4.22 <0.9.0;\npragma solidity ^0.8.0;\n// pragma experimental ABIEncoderV2;\n\ncontract PasswordManager {\n\n    //fallback function\n    fallback() payable external {\n    balance += msg.value;\n    }\n\n    receive() payable external {\n    balance += msg.value;\n    }\n\n    //TODO Comments\n\n    //TODO Use at least two design patterns from the \"Smart Contracts\" section\n\n    //TODO Protect against two attack vectors from the \"Smart Contracts\" section with its the SWC number\n\n    //TODO Inherits from at least one library or interface\n\n    //TODO Can be easily compiled, migrated and tested\n    //TODO Have at least five unit tests for your smart contract(s) that pass. \n    //In the code, include a sentence or two explaining what the tests are covering their expected behavior.\n\n    /* Events */\n    event PasswordListRead(address indexed sender);\n\n    event PasswordSaved(address indexed sender, Password pw);\n\n    event PasswordDeleted(address indexed sender);\n\n    event PasswordUpdated(address indexed sender);\n\n    address public owner;\n\n    //contract ballance\n    uint public balance;\n\n    //creat struct for passwords\n    struct Password {\n        uint index;\n        bytes32 domain;\n        bytes32 username;\n        bytes32 password;\n    }\n\n    //Have mapping for storing passwords\n    mapping(address => Password[]) public passwords;\n\n\n    constructor() {\n        owner = msg.sender;\n    }\n\n    /* Modifiers - maybe? */\n    modifier hasAPassword {\n        require(passwords[msg.sender].length > 0, \"There are no passwords to retrieve!\");\n        _;\n    }\n    \n    modifier onlyOwner {\n        require(msg.sender == owner, \"Only the owner can access this function!\");\n        _;\n    }\n\n\n    function getPasswordList() public view hasAPassword returns (Password[] memory){ //not sure yet whether to use the Password struct or to break it down into its components as arguments \n\n        //- ?Check if it exists in mapping (may be done at browser level)\n        // require(passwords[msg.sender].length > 0, \"You do not have a password stored.\");\n\n       \n        // emit PasswordListRead(msg.sender);\n\n        //return password list\n        return passwords[msg.sender];\n    }\n\n    function saveNewPassword(bytes32 _domain, bytes32 _username, bytes32 _password) public payable returns (bool){\n\n        //- ?Check if it exists in mapping (may be done at browser level)\n\n        //Set password index. This will be used as a key by the frontend.\n        uint _index = 0;\n        if (passwords[msg.sender].length > 0) {\n            _index = passwords[msg.sender].length;\n        }\n        //- encrypt\n        Password memory encryptedPassword = Password({index: _index, domain: _domain, username: _username, password: _password});\n\n        //add to passwords mapping\n        passwords[msg.sender].push(encryptedPassword);\n\n        emit PasswordSaved(msg.sender, encryptedPassword);\n\n        //return true\n        return true;\n    }\n\n    function updatePassword(uint _index, bytes32 _updatedDomain, bytes32 _updatedUsername, bytes32 _updatedPassword) public hasAPassword returns (bool){ //not sure yet whether to use the Password struct or to break it down into its components as arguments \n\n        //- ?Check if it exists in mapping (may be done at browser level)\n        // require(passwords[msg.sender], \"You do not have a password stored.\");\n\n        passwords[msg.sender][_index] = Password({index: _index, domain: _updatedDomain, username: _updatedUsername, password: _updatedPassword});\n       \n        emit PasswordUpdated(msg.sender);\n        \n        //return true\n        return true;\n    }\n\n    function deletePassword(uint _index) public hasAPassword returns (bool){ //not sure yet whether to use the Password struct or to break it down into its components as arguments \n\n        //- ?Check if it exists in mapping (may be done at browser level)\n        // require(passwords[msg.sender], \"You do not have a password stored.\");\n        \n        uint l = passwords[msg.sender].length;\n        \n        if (l > 1) {\n            passwords[msg.sender][_index] = passwords[msg.sender][l - 1];\n        }\n        \n        passwords[msg.sender].pop();\n       \n        emit PasswordDeleted(msg.sender);\n        \n        //return true\n        return true;\n    }\n\n\n\n    //function to withdraw funds from contract - onlyOwner\n    function withdraw(uint _amountToWithdraw) public payable onlyOwner returns (bool) {\n        require(_amountToWithdraw <= balance, \"Insufficient balance!\");\n        balance -= _amountToWithdraw;\n        (bool success, ) = owner.call{value: _amountToWithdraw}(\"Withdrawal from Password Manager\");\n        require(success);\n        \n        return true;\n    }\n    \n    \n}",
  "sourcePath": "/Users/Saad/Documents/Personal/Personal_Growth/Bootcamp/Final Project/blockchain-developer-bootcamp-final-project/contracts/PasswordManager.sol",
  "compiler": {
    "name": "solc",
    "version": "0.8.9+commit.e5eed63a.Emscripten.clang"
  },
  "schemaVersion": "3.4.3",
  "updatedAt": "2021-10-02T12:17:45.494Z",
  "networkType": "ethereum",
  "devdoc": {
    "kind": "dev",
    "methods": {},
    "version": 1
  },
  "userdoc": {
    "kind": "user",
    "methods": {},
    "version": 1
  }
}