{
  "contractName": "PasswordManager",
  "abi": [
    {
      "inputs": [],
      "payable": false,
      "stateMutability": "nonpayable",
      "type": "constructor"
    },
    {
      "constant": true,
      "inputs": [],
      "name": "owner",
      "outputs": [
        {
          "internalType": "address",
          "name": "",
          "type": "address"
        }
      ],
      "payable": false,
      "stateMutability": "view",
      "type": "function"
    },
    {
      "constant": false,
      "inputs": [
        {
          "internalType": "bytes32",
          "name": "_domain",
          "type": "bytes32"
        },
        {
          "internalType": "bytes32",
          "name": "_password",
          "type": "bytes32"
        }
      ],
      "name": "savePassword",
      "outputs": [
        {
          "internalType": "bool",
          "name": "",
          "type": "bool"
        }
      ],
      "payable": true,
      "stateMutability": "payable",
      "type": "function"
    },
    {
      "constant": true,
      "inputs": [],
      "name": "getPasswordList",
      "outputs": [
        {
          "components": [
            {
              "internalType": "bytes32",
              "name": "domain",
              "type": "bytes32"
            },
            {
              "internalType": "bytes32",
              "name": "password",
              "type": "bytes32"
            }
          ],
          "internalType": "struct PasswordManager.Password[]",
          "name": "",
          "type": "tuple[]"
        }
      ],
      "payable": false,
      "stateMutability": "view",
      "type": "function"
    }
  ],
  "bytecode": "0x608060405234801561001057600080fd5b50336000806101000a81548173ffffffffffffffffffffffffffffffffffffffff021916908373ffffffffffffffffffffffffffffffffffffffff160217905550610507806100606000396000f3fe6080604052600436106100345760003560e01c80631b2aaae71461003957806361c68110146100695780638da5cb5b14610094575b600080fd5b610053600480360361004e91908101906102c6565b6100bf565b6040516100609190610411565b60405180910390f35b34801561007557600080fd5b5061007e61016d565b60405161008b91906103ef565b60405180910390f35b3480156100a057600080fd5b506100a961026c565b6040516100b691906103d4565b60405180910390f35b60006100c9610291565b6040518060400160405280858152602001848152509050600160003373ffffffffffffffffffffffffffffffffffffffff1673ffffffffffffffffffffffffffffffffffffffff16815260200190815260200160002081908060018154018082558091505090600182039060005260206000209060020201600090919290919091506000820151816000015560208201518160010155505050600191505092915050565b60606000600160003373ffffffffffffffffffffffffffffffffffffffff1673ffffffffffffffffffffffffffffffffffffffff16815260200190815260200160002080549050116101be57600080fd5b600160003373ffffffffffffffffffffffffffffffffffffffff1673ffffffffffffffffffffffffffffffffffffffff168152602001908152602001600020805480602002602001604051908101604052809291908181526020016000905b828210156102635783829060005260206000209060020201604051806040016040529081600082015481526020016001820154815250508152602001906001019061021d565b50505050905090565b6000809054906101000a900473ffffffffffffffffffffffffffffffffffffffff1681565b604051806040016040528060008019168152602001600080191681525090565b6000813590506102c0816104ad565b92915050565b600080604083850312156102d957600080fd5b60006102e7858286016102b1565b92505060206102f8858286016102b1565b9150509250929050565b600061030e83836103a5565b60408301905092915050565b61032381610465565b82525050565b60006103348261043c565b61033e8185610454565b93506103498361042c565b8060005b8381101561037a5781516103618882610302565b975061036c83610447565b92505060018101905061034d565b5085935050505092915050565b61039081610477565b82525050565b61039f81610483565b82525050565b6040820160008201516103bb6000850182610396565b5060208201516103ce6020850182610396565b50505050565b60006020820190506103e9600083018461031a565b92915050565b600060208201905081810360008301526104098184610329565b905092915050565b60006020820190506104266000830184610387565b92915050565b6000819050602082019050919050565b600081519050919050565b6000602082019050919050565b600082825260208201905092915050565b60006104708261048d565b9050919050565b60008115159050919050565b6000819050919050565b600073ffffffffffffffffffffffffffffffffffffffff82169050919050565b6104b681610483565b81146104c157600080fd5b5056fea365627a7a72315820e9a11e3bc398202f818d97e4d2998309a91a5f044179ccc9567f129afd1a06d06c6578706572696d656e74616cf564736f6c63430005100040",
  "source": "// SPDX-License-Identifier: MIT\npragma solidity >=0.4.22 <0.9.0;\npragma experimental ABIEncoderV2;\n\ncontract PasswordManager {\n\n    \n\n    //TODO Comments\n\n    //TODO Use at least two design patterns from the \"Smart Contracts\" section\n\n    //TODO Protect against two attack vectors from the \"Smart Contracts\" section with its the SWC number\n\n    //TODO Inherits from at least one library or interface\n\n    //TODO Can be easily compiled, migrated and tested\n    //TODO Have at least five unit tests for your smart contract(s) that pass. \n    //In the code, include a sentence or two explaining what the tests are covering their expected behavior.\n\n    address public owner;\n\n    //contract ballance\n\n    //creat struct for passwords\n    struct Password {\n        bytes32 domain;\n        bytes32 password;\n    }\n\n    //Have mapping for storing passwords\n    mapping(address => Password[]) passwords;\n\n\n    constructor() public{\n        owner = msg.sender;\n    }\n\n    /* Modifiers - maybe? */\n    modifier hasAPassword {\n        require(passwords[msg.sender].length > 0);\n        _;\n    }\n\n\n    //function to encrypt password\n    function savePassword(bytes32 _domain, bytes32 _password) public payable returns (bool){\n\n        //- ?Check if it exists in mapping (may be done at browser level)\n\n        //- encrypt\n        Password memory encryptedPassword = Password({domain: _domain, password: _password});\n\n        //add to passwords mapping\n        passwords[msg.sender].push(encryptedPassword);\n\n        //return true\n        return true;\n    }\n\n    //function to decrypt password\n    function getPasswordList() public view hasAPassword returns (Password[] memory){ //not sure yet whether to use the Password struct or to break it down into its components as arguments \n\n        //- ?Check if it exists in mapping (may be done at browser level)\n        // require(passwords[msg.sender], \"You do not have a password stored.\");\n\n       \n\n        //return password list\n        return passwords[msg.sender];\n    }\n\n    //function to add password\n\n    //fallback function\n    // fallback() payable public {\n\n    // }\n\n    //function to withdraw funds from contract - onlyOwner\n}",
  "sourcePath": "/Users/Saad/Documents/Personal/Personal_Growth/Bootcamp/Final Project/blockchain-developer-bootcamp-final-project/contracts/PasswordManager.sol",
  "compiler": {
    "name": "solc",
    "version": "0.5.16+commit.9c3226ce.Emscripten.clang"
  },
  "schemaVersion": "3.4.3",
  "updatedAt": "2021-09-25T06:10:42.846Z",
  "networkType": "ethereum",
  "devdoc": {
    "methods": {}
  },
  "userdoc": {
    "methods": {}
  }
}